{
	"forge.sol": {
		"Forge": {
			"abi": [
				{
					"inputs": [],
					"stateMutability": "nonpayable",
					"type": "constructor"
				},
				{
					"inputs": [],
					"name": "boostItem",
					"outputs": [],
					"stateMutability": "nonpayable",
					"type": "function"
				},
				{
					"inputs": [
						{
							"internalType": "address",
							"name": "_player",
							"type": "address"
						},
						{
							"internalType": "string",
							"name": "_name",
							"type": "string"
						},
						{
							"internalType": "uint256",
							"name": "_power",
							"type": "uint256"
						}
					],
					"name": "createItem",
					"outputs": [],
					"stateMutability": "nonpayable",
					"type": "function"
				},
				{
					"inputs": [
						{
							"internalType": "address",
							"name": "",
							"type": "address"
						}
					],
					"name": "inventory",
					"outputs": [
						{
							"internalType": "string",
							"name": "name",
							"type": "string"
						},
						{
							"internalType": "uint256",
							"name": "power",
							"type": "uint256"
						}
					],
					"stateMutability": "view",
					"type": "function"
				},
				{
					"inputs": [],
					"name": "owner",
					"outputs": [
						{
							"internalType": "address",
							"name": "",
							"type": "address"
						}
					],
					"stateMutability": "view",
					"type": "function"
				}
			],
			"devdoc": {
				"kind": "dev",
				"methods": {},
				"version": 1
			},
			"evm": {
				"assembly": "    /* \"forge.sol\":61:1542  contract Forge {... */\n  mstore(0x40, 0x80)\n    /* \"forge.sol\":309:360  constructor() {... */\n  callvalue\n  dup1\n  iszero\n  tag_1\n  jumpi\n  revert(0x00, 0x00)\ntag_1:\n  pop\n    /* \"forge.sol\":342:352  msg.sender */\n  caller\n    /* \"forge.sol\":334:339  owner */\n  0x00\n  0x00\n    /* \"forge.sol\":334:352  owner = msg.sender */\n  0x0100\n  exp\n  dup2\n  sload\n  dup2\n  0xffffffffffffffffffffffffffffffffffffffff\n  mul\n  not\n  and\n  swap1\n  dup4\n  0xffffffffffffffffffffffffffffffffffffffff\n  and\n  mul\n  or\n  swap1\n  sstore\n  pop\n    /* \"forge.sol\":61:1542  contract Forge {... */\n  dataSize(sub_0)\n  dup1\n  dataOffset(sub_0)\n  0x00\n  codecopy\n  0x00\n  return\nstop\n\nsub_0: assembly {\n        /* \"forge.sol\":61:1542  contract Forge {... */\n      mstore(0x40, 0x80)\n      callvalue\n      dup1\n      iszero\n      tag_1\n      jumpi\n      revert(0x00, 0x00)\n    tag_1:\n      pop\n      jumpi(tag_2, lt(calldatasize, 0x04))\n      shr(0xe0, calldataload(0x00))\n      dup1\n      0x4307a4bf\n      eq\n      tag_3\n      jumpi\n      dup1\n      0x8da5cb5b\n      eq\n      tag_4\n      jumpi\n      dup1\n      0xb5fd282a\n      eq\n      tag_5\n      jumpi\n      dup1\n      0xc1b39af6\n      eq\n      tag_6\n      jumpi\n    tag_2:\n      revert(0x00, 0x00)\n        /* \"forge.sol\":542:953  function createItem(address _player, string memory _name, uint256 _power) public {... */\n    tag_3:\n      tag_7\n      0x04\n      dup1\n      calldatasize\n      sub\n      dup2\n      add\n      swap1\n      tag_8\n      swap2\n      swap1\n      tag_9\n      jump\t// in\n    tag_8:\n      tag_10\n      jump\t// in\n    tag_7:\n      stop\n        /* \"forge.sol\":197:217  address public owner */\n    tag_4:\n      tag_11\n      tag_12\n      jump\t// in\n    tag_11:\n      mload(0x40)\n      tag_13\n      swap2\n      swap1\n      tag_14\n      jump\t// in\n    tag_13:\n      mload(0x40)\n      dup1\n      swap2\n      sub\n      swap1\n      return\n        /* \"forge.sol\":454:495  mapping(address => Item) public inventory */\n    tag_5:\n      tag_15\n      0x04\n      dup1\n      calldatasize\n      sub\n      dup2\n      add\n      swap1\n      tag_16\n      swap2\n      swap1\n      tag_17\n      jump\t// in\n    tag_16:\n      tag_18\n      jump\t// in\n    tag_15:\n      mload(0x40)\n      tag_19\n      swap3\n      swap2\n      swap1\n      tag_20\n      jump\t// in\n    tag_19:\n      mload(0x40)\n      dup1\n      swap2\n      sub\n      swap1\n      return\n        /* \"forge.sol\":1010:1539  function boostItem() public {... */\n    tag_6:\n      tag_21\n      tag_22\n      jump\t// in\n    tag_21:\n      stop\n        /* \"forge.sol\":542:953  function createItem(address _player, string memory _name, uint256 _power) public {... */\n    tag_10:\n        /* \"forge.sol\":649:659  msg.sender */\n      caller\n        /* \"forge.sol\":642:659  owner==msg.sender */\n      0xffffffffffffffffffffffffffffffffffffffff\n      and\n        /* \"forge.sol\":642:647  owner */\n      0x00\n      0x00\n      swap1\n      sload\n      swap1\n      0x0100\n      exp\n      swap1\n      div\n      0xffffffffffffffffffffffffffffffffffffffff\n      and\n        /* \"forge.sol\":642:659  owner==msg.sender */\n      0xffffffffffffffffffffffffffffffffffffffff\n      and\n      eq\n        /* \"forge.sol\":634:675  require(owner==msg.sender, \"Not allowed\") */\n      tag_24\n      jumpi\n      mload(0x40)\n      0x08c379a000000000000000000000000000000000000000000000000000000000\n      dup2\n      mstore\n      0x04\n      add\n      tag_25\n      swap1\n      tag_26\n      jump\t// in\n    tag_25:\n      mload(0x40)\n      dup1\n      swap2\n      sub\n      swap1\n      revert\n    tag_24:\n        /* \"forge.sol\":708:713  owner */\n      0x00\n      0x00\n      swap1\n      sload\n      swap1\n      0x0100\n      exp\n      swap1\n      div\n      0xffffffffffffffffffffffffffffffffffffffff\n      and\n        /* \"forge.sol\":694:713  msg.sender == owner */\n      0xffffffffffffffffffffffffffffffffffffffff\n      and\n        /* \"forge.sol\":694:704  msg.sender */\n      caller\n        /* \"forge.sol\":694:713  msg.sender == owner */\n      0xffffffffffffffffffffffffffffffffffffffff\n      and\n      eq\n        /* \"forge.sol\":686:736  require(msg.sender == owner, \"Player is required\") */\n      tag_27\n      jumpi\n      mload(0x40)\n      0x08c379a000000000000000000000000000000000000000000000000000000000\n      dup2\n      mstore\n      0x04\n      add\n      tag_28\n      swap1\n      tag_29\n      jump\t// in\n    tag_28:\n      mload(0x40)\n      dup1\n      swap2\n      sub\n      swap1\n      revert\n    tag_27:\n        /* \"forge.sol\":819:838  Item memory newItem */\n      0x00\n        /* \"forge.sol\":841:860  Item(_name, _power) */\n      mload(0x40)\n      dup1\n      0x40\n      add\n      0x40\n      mstore\n      dup1\n        /* \"forge.sol\":846:851  _name */\n      dup5\n        /* \"forge.sol\":841:860  Item(_name, _power) */\n      dup2\n      mstore\n      0x20\n      add\n        /* \"forge.sol\":853:859  _power */\n      dup4\n        /* \"forge.sol\":841:860  Item(_name, _power) */\n      dup2\n      mstore\n      pop\n        /* \"forge.sol\":819:860  Item memory newItem = Item(_name, _power) */\n      swap1\n      pop\n        /* \"forge.sol\":938:945  newItem */\n      dup1\n        /* \"forge.sol\":917:926  inventory */\n      0x01\n        /* \"forge.sol\":917:935  inventory[_player] */\n      0x00\n        /* \"forge.sol\":927:934  _player */\n      dup7\n        /* \"forge.sol\":917:935  inventory[_player] */\n      0xffffffffffffffffffffffffffffffffffffffff\n      and\n      0xffffffffffffffffffffffffffffffffffffffff\n      and\n      dup2\n      mstore\n      0x20\n      add\n      swap1\n      dup2\n      mstore\n      0x20\n      add\n      0x00\n      keccak256\n        /* \"forge.sol\":917:945  inventory[_player] = newItem */\n      0x00\n      dup3\n      add\n      mload\n      dup2\n      0x00\n      add\n      swap1\n      dup2\n      tag_30\n      swap2\n      swap1\n      tag_31\n      jump\t// in\n    tag_30:\n      pop\n      0x20\n      dup3\n      add\n      mload\n      dup2\n      0x01\n      add\n      sstore\n      swap1\n      pop\n      pop\n        /* \"forge.sol\":623:953  {... */\n      pop\n        /* \"forge.sol\":542:953  function createItem(address _player, string memory _name, uint256 _power) public {... */\n      pop\n      pop\n      pop\n      jump\t// out\n        /* \"forge.sol\":197:217  address public owner */\n    tag_12:\n      0x00\n      0x00\n      swap1\n      sload\n      swap1\n      0x0100\n      exp\n      swap1\n      div\n      0xffffffffffffffffffffffffffffffffffffffff\n      and\n      dup2\n      jump\t// out\n        /* \"forge.sol\":454:495  mapping(address => Item) public inventory */\n    tag_18:\n      mstore(0x20, 0x01)\n      dup1\n      0x00\n      mstore\n      keccak256(0x00, 0x40)\n      0x00\n      swap2\n      pop\n      swap1\n      pop\n      dup1\n      0x00\n      add\n      dup1\n      sload\n      tag_32\n      swap1\n      tag_33\n      jump\t// in\n    tag_32:\n      dup1\n      0x1f\n      add\n      0x20\n      dup1\n      swap2\n      div\n      mul\n      0x20\n      add\n      mload(0x40)\n      swap1\n      dup2\n      add\n      0x40\n      mstore\n      dup1\n      swap3\n      swap2\n      swap1\n      dup2\n      dup2\n      mstore\n      0x20\n      add\n      dup3\n      dup1\n      sload\n      tag_34\n      swap1\n      tag_33\n      jump\t// in\n    tag_34:\n      dup1\n      iszero\n      tag_35\n      jumpi\n      dup1\n      0x1f\n      lt\n      tag_36\n      jumpi\n      0x0100\n      dup1\n      dup4\n      sload\n      div\n      mul\n      dup4\n      mstore\n      swap2\n      0x20\n      add\n      swap2\n      jump(tag_35)\n    tag_36:\n      dup3\n      add\n      swap2\n      swap1\n      0x00\n      mstore\n      keccak256(0x00, 0x20)\n      swap1\n    tag_37:\n      dup2\n      sload\n      dup2\n      mstore\n      swap1\n      0x01\n      add\n      swap1\n      0x20\n      add\n      dup1\n      dup4\n      gt\n      tag_37\n      jumpi\n      dup3\n      swap1\n      sub\n      0x1f\n      and\n      dup3\n      add\n      swap2\n    tag_35:\n      pop\n      pop\n      pop\n      pop\n      pop\n      swap1\n      dup1\n      0x01\n      add\n      sload\n      swap1\n      pop\n      dup3\n      jump\t// out\n        /* \"forge.sol\":1010:1539  function boostItem() public {... */\n    tag_22:\n        /* \"forge.sol\":1132:1149  Item storage item */\n      0x00\n        /* \"forge.sol\":1152:1161  inventory */\n      0x01\n        /* \"forge.sol\":1152:1173  inventory[msg.sender] */\n      0x00\n        /* \"forge.sol\":1162:1172  msg.sender */\n      caller\n        /* \"forge.sol\":1152:1173  inventory[msg.sender] */\n      0xffffffffffffffffffffffffffffffffffffffff\n      and\n      0xffffffffffffffffffffffffffffffffffffffff\n      and\n      dup2\n      mstore\n      0x20\n      add\n      swap1\n      dup2\n      mstore\n      0x20\n      add\n      0x00\n      keccak256\n        /* \"forge.sol\":1132:1173  Item storage item = inventory[msg.sender] */\n      swap1\n      pop\n        /* \"forge.sol\":1370:1372  10 */\n      0x0a\n        /* \"forge.sol\":1357:1361  item */\n      dup2\n        /* \"forge.sol\":1357:1367  item.power */\n      0x01\n      add\n      sload\n        /* \"forge.sol\":1357:1372  item.power + 10 */\n      tag_39\n      swap2\n      swap1\n      tag_40\n      jump\t// in\n    tag_39:\n        /* \"forge.sol\":1344:1348  item */\n      dup2\n        /* \"forge.sol\":1344:1354  item.power */\n      0x01\n      add\n        /* \"forge.sol\":1344:1372  item.power = item.power + 10 */\n      dup2\n      swap1\n      sstore\n      pop\n        /* \"forge.sol\":1038:1539  {... */\n      pop\n        /* \"forge.sol\":1010:1539  function boostItem() public {... */\n      jump\t// out\n        /* \"#utility.yul\":7:82   */\n    tag_41:\n        /* \"#utility.yul\":40:46   */\n      0x00\n        /* \"#utility.yul\":73:75   */\n      0x40\n        /* \"#utility.yul\":67:76   */\n      mload\n        /* \"#utility.yul\":57:76   */\n      swap1\n      pop\n        /* \"#utility.yul\":7:82   */\n      swap1\n      jump\t// out\n        /* \"#utility.yul\":88:205   */\n    tag_42:\n        /* \"#utility.yul\":197:198   */\n      0x00\n        /* \"#utility.yul\":194:195   */\n      0x00\n        /* \"#utility.yul\":187:199   */\n      revert\n        /* \"#utility.yul\":211:328   */\n    tag_43:\n        /* \"#utility.yul\":320:321   */\n      0x00\n        /* \"#utility.yul\":317:318   */\n      0x00\n        /* \"#utility.yul\":310:322   */\n      revert\n        /* \"#utility.yul\":334:460   */\n    tag_44:\n        /* \"#utility.yul\":371:378   */\n      0x00\n        /* \"#utility.yul\":411:453   */\n      0xffffffffffffffffffffffffffffffffffffffff\n        /* \"#utility.yul\":404:409   */\n      dup3\n        /* \"#utility.yul\":400:454   */\n      and\n        /* \"#utility.yul\":389:454   */\n      swap1\n      pop\n        /* \"#utility.yul\":334:460   */\n      swap2\n      swap1\n      pop\n      jump\t// out\n        /* \"#utility.yul\":466:562   */\n    tag_45:\n        /* \"#utility.yul\":503:510   */\n      0x00\n        /* \"#utility.yul\":532:556   */\n      tag_94\n        /* \"#utility.yul\":550:555   */\n      dup3\n        /* \"#utility.yul\":532:556   */\n      tag_44\n      jump\t// in\n    tag_94:\n        /* \"#utility.yul\":521:556   */\n      swap1\n      pop\n        /* \"#utility.yul\":466:562   */\n      swap2\n      swap1\n      pop\n      jump\t// out\n        /* \"#utility.yul\":568:690   */\n    tag_46:\n        /* \"#utility.yul\":641:665   */\n      tag_96\n        /* \"#utility.yul\":659:664   */\n      dup2\n        /* \"#utility.yul\":641:665   */\n      tag_45\n      jump\t// in\n    tag_96:\n        /* \"#utility.yul\":634:639   */\n      dup2\n        /* \"#utility.yul\":631:666   */\n      eq\n        /* \"#utility.yul\":621:684   */\n      tag_97\n      jumpi\n        /* \"#utility.yul\":680:681   */\n      0x00\n        /* \"#utility.yul\":677:678   */\n      0x00\n        /* \"#utility.yul\":670:682   */\n      revert\n        /* \"#utility.yul\":621:684   */\n    tag_97:\n        /* \"#utility.yul\":568:690   */\n      pop\n      jump\t// out\n        /* \"#utility.yul\":696:835   */\n    tag_47:\n        /* \"#utility.yul\":742:747   */\n      0x00\n        /* \"#utility.yul\":780:786   */\n      dup2\n        /* \"#utility.yul\":767:787   */\n      calldataload\n        /* \"#utility.yul\":758:787   */\n      swap1\n      pop\n        /* \"#utility.yul\":796:829   */\n      tag_99\n        /* \"#utility.yul\":823:828   */\n      dup2\n        /* \"#utility.yul\":796:829   */\n      tag_46\n      jump\t// in\n    tag_99:\n        /* \"#utility.yul\":696:835   */\n      swap3\n      swap2\n      pop\n      pop\n      jump\t// out\n        /* \"#utility.yul\":841:958   */\n    tag_48:\n        /* \"#utility.yul\":950:951   */\n      0x00\n        /* \"#utility.yul\":947:948   */\n      0x00\n        /* \"#utility.yul\":940:952   */\n      revert\n        /* \"#utility.yul\":964:1081   */\n    tag_49:\n        /* \"#utility.yul\":1073:1074   */\n      0x00\n        /* \"#utility.yul\":1070:1071   */\n      0x00\n        /* \"#utility.yul\":1063:1075   */\n      revert\n        /* \"#utility.yul\":1087:1189   */\n    tag_50:\n        /* \"#utility.yul\":1128:1134   */\n      0x00\n        /* \"#utility.yul\":1179:1181   */\n      0x1f\n        /* \"#utility.yul\":1175:1182   */\n      not\n        /* \"#utility.yul\":1170:1172   */\n      0x1f\n        /* \"#utility.yul\":1163:1168   */\n      dup4\n        /* \"#utility.yul\":1159:1173   */\n      add\n        /* \"#utility.yul\":1155:1183   */\n      and\n        /* \"#utility.yul\":1145:1183   */\n      swap1\n      pop\n        /* \"#utility.yul\":1087:1189   */\n      swap2\n      swap1\n      pop\n      jump\t// out\n        /* \"#utility.yul\":1195:1375   */\n    tag_51:\n        /* \"#utility.yul\":1243:1320   */\n      0x4e487b7100000000000000000000000000000000000000000000000000000000\n        /* \"#utility.yul\":1240:1241   */\n      0x00\n        /* \"#utility.yul\":1233:1321   */\n      mstore\n        /* \"#utility.yul\":1340:1344   */\n      0x41\n        /* \"#utility.yul\":1337:1338   */\n      0x04\n        /* \"#utility.yul\":1330:1345   */\n      mstore\n        /* \"#utility.yul\":1364:1368   */\n      0x24\n        /* \"#utility.yul\":1361:1362   */\n      0x00\n        /* \"#utility.yul\":1354:1369   */\n      revert\n        /* \"#utility.yul\":1381:1662   */\n    tag_52:\n        /* \"#utility.yul\":1464:1491   */\n      tag_105\n        /* \"#utility.yul\":1486:1490   */\n      dup3\n        /* \"#utility.yul\":1464:1491   */\n      tag_50\n      jump\t// in\n    tag_105:\n        /* \"#utility.yul\":1456:1462   */\n      dup2\n        /* \"#utility.yul\":1452:1492   */\n      add\n        /* \"#utility.yul\":1594:1600   */\n      dup2\n        /* \"#utility.yul\":1582:1592   */\n      dup2\n        /* \"#utility.yul\":1579:1601   */\n      lt\n        /* \"#utility.yul\":1558:1576   */\n      0xffffffffffffffff\n        /* \"#utility.yul\":1546:1556   */\n      dup3\n        /* \"#utility.yul\":1543:1577   */\n      gt\n        /* \"#utility.yul\":1540:1602   */\n      or\n        /* \"#utility.yul\":1537:1625   */\n      iszero\n      tag_106\n      jumpi\n        /* \"#utility.yul\":1605:1623   */\n      tag_107\n      tag_51\n      jump\t// in\n    tag_107:\n        /* \"#utility.yul\":1537:1625   */\n    tag_106:\n        /* \"#utility.yul\":1645:1655   */\n      dup1\n        /* \"#utility.yul\":1641:1643   */\n      0x40\n        /* \"#utility.yul\":1634:1656   */\n      mstore\n        /* \"#utility.yul\":1424:1662   */\n      pop\n        /* \"#utility.yul\":1381:1662   */\n      pop\n      pop\n      jump\t// out\n        /* \"#utility.yul\":1668:1797   */\n    tag_53:\n        /* \"#utility.yul\":1702:1708   */\n      0x00\n        /* \"#utility.yul\":1729:1749   */\n      tag_109\n      tag_41\n      jump\t// in\n    tag_109:\n        /* \"#utility.yul\":1719:1749   */\n      swap1\n      pop\n        /* \"#utility.yul\":1758:1791   */\n      tag_110\n        /* \"#utility.yul\":1786:1790   */\n      dup3\n        /* \"#utility.yul\":1778:1784   */\n      dup3\n        /* \"#utility.yul\":1758:1791   */\n      tag_52\n      jump\t// in\n    tag_110:\n        /* \"#utility.yul\":1668:1797   */\n      swap2\n      swap1\n      pop\n      jump\t// out\n        /* \"#utility.yul\":1803:2111   */\n    tag_54:\n        /* \"#utility.yul\":1865:1869   */\n      0x00\n        /* \"#utility.yul\":1955:1973   */\n      0xffffffffffffffff\n        /* \"#utility.yul\":1947:1953   */\n      dup3\n        /* \"#utility.yul\":1944:1974   */\n      gt\n        /* \"#utility.yul\":1941:1997   */\n      iszero\n      tag_112\n      jumpi\n        /* \"#utility.yul\":1977:1995   */\n      tag_113\n      tag_51\n      jump\t// in\n    tag_113:\n        /* \"#utility.yul\":1941:1997   */\n    tag_112:\n        /* \"#utility.yul\":2015:2044   */\n      tag_114\n        /* \"#utility.yul\":2037:2043   */\n      dup3\n        /* \"#utility.yul\":2015:2044   */\n      tag_50\n      jump\t// in\n    tag_114:\n        /* \"#utility.yul\":2007:2044   */\n      swap1\n      pop\n        /* \"#utility.yul\":2099:2103   */\n      0x20\n        /* \"#utility.yul\":2093:2097   */\n      dup2\n        /* \"#utility.yul\":2089:2104   */\n      add\n        /* \"#utility.yul\":2081:2104   */\n      swap1\n      pop\n        /* \"#utility.yul\":1803:2111   */\n      swap2\n      swap1\n      pop\n      jump\t// out\n        /* \"#utility.yul\":2117:2265   */\n    tag_55:\n        /* \"#utility.yul\":2215:2221   */\n      dup3\n        /* \"#utility.yul\":2210:2213   */\n      dup2\n        /* \"#utility.yul\":2205:2208   */\n      dup4\n        /* \"#utility.yul\":2192:2222   */\n      calldatacopy\n        /* \"#utility.yul\":2256:2257   */\n      0x00\n        /* \"#utility.yul\":2247:2253   */\n      dup4\n        /* \"#utility.yul\":2242:2245   */\n      dup4\n        /* \"#utility.yul\":2238:2254   */\n      add\n        /* \"#utility.yul\":2231:2258   */\n      mstore\n        /* \"#utility.yul\":2117:2265   */\n      pop\n      pop\n      pop\n      jump\t// out\n        /* \"#utility.yul\":2271:2696   */\n    tag_56:\n        /* \"#utility.yul\":2349:2354   */\n      0x00\n        /* \"#utility.yul\":2374:2440   */\n      tag_117\n        /* \"#utility.yul\":2390:2439   */\n      tag_118\n        /* \"#utility.yul\":2432:2438   */\n      dup5\n        /* \"#utility.yul\":2390:2439   */\n      tag_54\n      jump\t// in\n    tag_118:\n        /* \"#utility.yul\":2374:2440   */\n      tag_53\n      jump\t// in\n    tag_117:\n        /* \"#utility.yul\":2365:2440   */\n      swap1\n      pop\n        /* \"#utility.yul\":2463:2469   */\n      dup3\n        /* \"#utility.yul\":2456:2461   */\n      dup2\n        /* \"#utility.yul\":2449:2470   */\n      mstore\n        /* \"#utility.yul\":2501:2505   */\n      0x20\n        /* \"#utility.yul\":2494:2499   */\n      dup2\n        /* \"#utility.yul\":2490:2506   */\n      add\n        /* \"#utility.yul\":2539:2542   */\n      dup5\n        /* \"#utility.yul\":2530:2536   */\n      dup5\n        /* \"#utility.yul\":2525:2528   */\n      dup5\n        /* \"#utility.yul\":2521:2537   */\n      add\n        /* \"#utility.yul\":2518:2543   */\n      gt\n        /* \"#utility.yul\":2515:2627   */\n      iszero\n      tag_119\n      jumpi\n        /* \"#utility.yul\":2546:2625   */\n      tag_120\n      tag_49\n      jump\t// in\n    tag_120:\n        /* \"#utility.yul\":2515:2627   */\n    tag_119:\n        /* \"#utility.yul\":2636:2690   */\n      tag_121\n        /* \"#utility.yul\":2683:2689   */\n      dup5\n        /* \"#utility.yul\":2678:2681   */\n      dup3\n        /* \"#utility.yul\":2673:2676   */\n      dup6\n        /* \"#utility.yul\":2636:2690   */\n      tag_55\n      jump\t// in\n    tag_121:\n        /* \"#utility.yul\":2355:2696   */\n      pop\n        /* \"#utility.yul\":2271:2696   */\n      swap4\n      swap3\n      pop\n      pop\n      pop\n      jump\t// out\n        /* \"#utility.yul\":2716:3056   */\n    tag_57:\n        /* \"#utility.yul\":2772:2777   */\n      0x00\n        /* \"#utility.yul\":2821:2824   */\n      dup3\n        /* \"#utility.yul\":2814:2818   */\n      0x1f\n        /* \"#utility.yul\":2806:2812   */\n      dup4\n        /* \"#utility.yul\":2802:2819   */\n      add\n        /* \"#utility.yul\":2798:2825   */\n      slt\n        /* \"#utility.yul\":2788:2910   */\n      tag_123\n      jumpi\n        /* \"#utility.yul\":2829:2908   */\n      tag_124\n      tag_48\n      jump\t// in\n    tag_124:\n        /* \"#utility.yul\":2788:2910   */\n    tag_123:\n        /* \"#utility.yul\":2946:2952   */\n      dup2\n        /* \"#utility.yul\":2933:2953   */\n      calldataload\n        /* \"#utility.yul\":2971:3050   */\n      tag_125\n        /* \"#utility.yul\":3046:3049   */\n      dup5\n        /* \"#utility.yul\":3038:3044   */\n      dup3\n        /* \"#utility.yul\":3031:3035   */\n      0x20\n        /* \"#utility.yul\":3023:3029   */\n      dup7\n        /* \"#utility.yul\":3019:3036   */\n      add\n        /* \"#utility.yul\":2971:3050   */\n      tag_56\n      jump\t// in\n    tag_125:\n        /* \"#utility.yul\":2962:3050   */\n      swap2\n      pop\n        /* \"#utility.yul\":2778:3056   */\n      pop\n        /* \"#utility.yul\":2716:3056   */\n      swap3\n      swap2\n      pop\n      pop\n      jump\t// out\n        /* \"#utility.yul\":3062:3139   */\n    tag_58:\n        /* \"#utility.yul\":3099:3106   */\n      0x00\n        /* \"#utility.yul\":3128:3133   */\n      dup2\n        /* \"#utility.yul\":3117:3133   */\n      swap1\n      pop\n        /* \"#utility.yul\":3062:3139   */\n      swap2\n      swap1\n      pop\n      jump\t// out\n        /* \"#utility.yul\":3145:3267   */\n    tag_59:\n        /* \"#utility.yul\":3218:3242   */\n      tag_128\n        /* \"#utility.yul\":3236:3241   */\n      dup2\n        /* \"#utility.yul\":3218:3242   */\n      tag_58\n      jump\t// in\n    tag_128:\n        /* \"#utility.yul\":3211:3216   */\n      dup2\n        /* \"#utility.yul\":3208:3243   */\n      eq\n        /* \"#utility.yul\":3198:3261   */\n      tag_129\n      jumpi\n        /* \"#utility.yul\":3257:3258   */\n      0x00\n        /* \"#utility.yul\":3254:3255   */\n      0x00\n        /* \"#utility.yul\":3247:3259   */\n      revert\n        /* \"#utility.yul\":3198:3261   */\n    tag_129:\n        /* \"#utility.yul\":3145:3267   */\n      pop\n      jump\t// out\n        /* \"#utility.yul\":3273:3412   */\n    tag_60:\n        /* \"#utility.yul\":3319:3324   */\n      0x00\n        /* \"#utility.yul\":3357:3363   */\n      dup2\n        /* \"#utility.yul\":3344:3364   */\n      calldataload\n        /* \"#utility.yul\":3335:3364   */\n      swap1\n      pop\n        /* \"#utility.yul\":3373:3406   */\n      tag_131\n        /* \"#utility.yul\":3400:3405   */\n      dup2\n        /* \"#utility.yul\":3373:3406   */\n      tag_59\n      jump\t// in\n    tag_131:\n        /* \"#utility.yul\":3273:3412   */\n      swap3\n      swap2\n      pop\n      pop\n      jump\t// out\n        /* \"#utility.yul\":3418:4217   */\n    tag_9:\n        /* \"#utility.yul\":3505:3511   */\n      0x00\n        /* \"#utility.yul\":3513:3519   */\n      0x00\n        /* \"#utility.yul\":3521:3527   */\n      0x00\n        /* \"#utility.yul\":3570:3572   */\n      0x60\n        /* \"#utility.yul\":3558:3567   */\n      dup5\n        /* \"#utility.yul\":3549:3556   */\n      dup7\n        /* \"#utility.yul\":3545:3568   */\n      sub\n        /* \"#utility.yul\":3541:3573   */\n      slt\n        /* \"#utility.yul\":3538:3657   */\n      iszero\n      tag_133\n      jumpi\n        /* \"#utility.yul\":3576:3655   */\n      tag_134\n      tag_42\n      jump\t// in\n    tag_134:\n        /* \"#utility.yul\":3538:3657   */\n    tag_133:\n        /* \"#utility.yul\":3696:3697   */\n      0x00\n        /* \"#utility.yul\":3721:3774   */\n      tag_135\n        /* \"#utility.yul\":3766:3773   */\n      dup7\n        /* \"#utility.yul\":3757:3763   */\n      dup3\n        /* \"#utility.yul\":3746:3755   */\n      dup8\n        /* \"#utility.yul\":3742:3764   */\n      add\n        /* \"#utility.yul\":3721:3774   */\n      tag_47\n      jump\t// in\n    tag_135:\n        /* \"#utility.yul\":3711:3774   */\n      swap4\n      pop\n        /* \"#utility.yul\":3667:3784   */\n      pop\n        /* \"#utility.yul\":3851:3853   */\n      0x20\n        /* \"#utility.yul\":3840:3849   */\n      dup5\n        /* \"#utility.yul\":3836:3854   */\n      add\n        /* \"#utility.yul\":3823:3855   */\n      calldataload\n        /* \"#utility.yul\":3882:3900   */\n      0xffffffffffffffff\n        /* \"#utility.yul\":3874:3880   */\n      dup2\n        /* \"#utility.yul\":3871:3901   */\n      gt\n        /* \"#utility.yul\":3868:3985   */\n      iszero\n      tag_136\n      jumpi\n        /* \"#utility.yul\":3904:3983   */\n      tag_137\n      tag_43\n      jump\t// in\n    tag_137:\n        /* \"#utility.yul\":3868:3985   */\n    tag_136:\n        /* \"#utility.yul\":4009:4072   */\n      tag_138\n        /* \"#utility.yul\":4064:4071   */\n      dup7\n        /* \"#utility.yul\":4055:4061   */\n      dup3\n        /* \"#utility.yul\":4044:4053   */\n      dup8\n        /* \"#utility.yul\":4040:4062   */\n      add\n        /* \"#utility.yul\":4009:4072   */\n      tag_57\n      jump\t// in\n    tag_138:\n        /* \"#utility.yul\":3999:4072   */\n      swap3\n      pop\n        /* \"#utility.yul\":3794:4082   */\n      pop\n        /* \"#utility.yul\":4121:4123   */\n      0x40\n        /* \"#utility.yul\":4147:4200   */\n      tag_139\n        /* \"#utility.yul\":4192:4199   */\n      dup7\n        /* \"#utility.yul\":4183:4189   */\n      dup3\n        /* \"#utility.yul\":4172:4181   */\n      dup8\n        /* \"#utility.yul\":4168:4190   */\n      add\n        /* \"#utility.yul\":4147:4200   */\n      tag_60\n      jump\t// in\n    tag_139:\n        /* \"#utility.yul\":4137:4200   */\n      swap2\n      pop\n        /* \"#utility.yul\":4092:4210   */\n      pop\n        /* \"#utility.yul\":3418:4217   */\n      swap3\n      pop\n      swap3\n      pop\n      swap3\n      jump\t// out\n        /* \"#utility.yul\":4223:4341   */\n    tag_61:\n        /* \"#utility.yul\":4310:4334   */\n      tag_141\n        /* \"#utility.yul\":4328:4333   */\n      dup2\n        /* \"#utility.yul\":4310:4334   */\n      tag_45\n      jump\t// in\n    tag_141:\n        /* \"#utility.yul\":4305:4308   */\n      dup3\n        /* \"#utility.yul\":4298:4335   */\n      mstore\n        /* \"#utility.yul\":4223:4341   */\n      pop\n      pop\n      jump\t// out\n        /* \"#utility.yul\":4347:4569   */\n    tag_14:\n        /* \"#utility.yul\":4440:4444   */\n      0x00\n        /* \"#utility.yul\":4478:4480   */\n      0x20\n        /* \"#utility.yul\":4467:4476   */\n      dup3\n        /* \"#utility.yul\":4463:4481   */\n      add\n        /* \"#utility.yul\":4455:4481   */\n      swap1\n      pop\n        /* \"#utility.yul\":4491:4562   */\n      tag_143\n        /* \"#utility.yul\":4559:4560   */\n      0x00\n        /* \"#utility.yul\":4548:4557   */\n      dup4\n        /* \"#utility.yul\":4544:4561   */\n      add\n        /* \"#utility.yul\":4535:4541   */\n      dup5\n        /* \"#utility.yul\":4491:4562   */\n      tag_61\n      jump\t// in\n    tag_143:\n        /* \"#utility.yul\":4347:4569   */\n      swap3\n      swap2\n      pop\n      pop\n      jump\t// out\n        /* \"#utility.yul\":4575:4904   */\n    tag_17:\n        /* \"#utility.yul\":4634:4640   */\n      0x00\n        /* \"#utility.yul\":4683:4685   */\n      0x20\n        /* \"#utility.yul\":4671:4680   */\n      dup3\n        /* \"#utility.yul\":4662:4669   */\n      dup5\n        /* \"#utility.yul\":4658:4681   */\n      sub\n        /* \"#utility.yul\":4654:4686   */\n      slt\n        /* \"#utility.yul\":4651:4770   */\n      iszero\n      tag_145\n      jumpi\n        /* \"#utility.yul\":4689:4768   */\n      tag_146\n      tag_42\n      jump\t// in\n    tag_146:\n        /* \"#utility.yul\":4651:4770   */\n    tag_145:\n        /* \"#utility.yul\":4809:4810   */\n      0x00\n        /* \"#utility.yul\":4834:4887   */\n      tag_147\n        /* \"#utility.yul\":4879:4886   */\n      dup5\n        /* \"#utility.yul\":4870:4876   */\n      dup3\n        /* \"#utility.yul\":4859:4868   */\n      dup6\n        /* \"#utility.yul\":4855:4877   */\n      add\n        /* \"#utility.yul\":4834:4887   */\n      tag_47\n      jump\t// in\n    tag_147:\n        /* \"#utility.yul\":4824:4887   */\n      swap2\n      pop\n        /* \"#utility.yul\":4780:4897   */\n      pop\n        /* \"#utility.yul\":4575:4904   */\n      swap3\n      swap2\n      pop\n      pop\n      jump\t// out\n        /* \"#utility.yul\":4910:5009   */\n    tag_62:\n        /* \"#utility.yul\":4962:4968   */\n      0x00\n        /* \"#utility.yul\":4996:5001   */\n      dup2\n        /* \"#utility.yul\":4990:5002   */\n      mload\n        /* \"#utility.yul\":4980:5002   */\n      swap1\n      pop\n        /* \"#utility.yul\":4910:5009   */\n      swap2\n      swap1\n      pop\n      jump\t// out\n        /* \"#utility.yul\":5015:5184   */\n    tag_63:\n        /* \"#utility.yul\":5099:5110   */\n      0x00\n        /* \"#utility.yul\":5133:5139   */\n      dup3\n        /* \"#utility.yul\":5128:5131   */\n      dup3\n        /* \"#utility.yul\":5121:5140   */\n      mstore\n        /* \"#utility.yul\":5173:5177   */\n      0x20\n        /* \"#utility.yul\":5168:5171   */\n      dup3\n        /* \"#utility.yul\":5164:5178   */\n      add\n        /* \"#utility.yul\":5149:5178   */\n      swap1\n      pop\n        /* \"#utility.yul\":5015:5184   */\n      swap3\n      swap2\n      pop\n      pop\n      jump\t// out\n        /* \"#utility.yul\":5190:5329   */\n    tag_64:\n        /* \"#utility.yul\":5279:5285   */\n      dup3\n        /* \"#utility.yul\":5274:5277   */\n      dup2\n        /* \"#utility.yul\":5269:5272   */\n      dup4\n        /* \"#utility.yul\":5263:5286   */\n      mcopy\n        /* \"#utility.yul\":5320:5321   */\n      0x00\n        /* \"#utility.yul\":5311:5317   */\n      dup4\n        /* \"#utility.yul\":5306:5309   */\n      dup4\n        /* \"#utility.yul\":5302:5318   */\n      add\n        /* \"#utility.yul\":5295:5322   */\n      mstore\n        /* \"#utility.yul\":5190:5329   */\n      pop\n      pop\n      pop\n      jump\t// out\n        /* \"#utility.yul\":5335:5712   */\n    tag_65:\n        /* \"#utility.yul\":5423:5426   */\n      0x00\n        /* \"#utility.yul\":5451:5490   */\n      tag_152\n        /* \"#utility.yul\":5484:5489   */\n      dup3\n        /* \"#utility.yul\":5451:5490   */\n      tag_62\n      jump\t// in\n    tag_152:\n        /* \"#utility.yul\":5506:5577   */\n      tag_153\n        /* \"#utility.yul\":5570:5576   */\n      dup2\n        /* \"#utility.yul\":5565:5568   */\n      dup6\n        /* \"#utility.yul\":5506:5577   */\n      tag_63\n      jump\t// in\n    tag_153:\n        /* \"#utility.yul\":5499:5577   */\n      swap4\n      pop\n        /* \"#utility.yul\":5586:5651   */\n      tag_154\n        /* \"#utility.yul\":5644:5650   */\n      dup2\n        /* \"#utility.yul\":5639:5642   */\n      dup6\n        /* \"#utility.yul\":5632:5636   */\n      0x20\n        /* \"#utility.yul\":5625:5630   */\n      dup7\n        /* \"#utility.yul\":5621:5637   */\n      add\n        /* \"#utility.yul\":5586:5651   */\n      tag_64\n      jump\t// in\n    tag_154:\n        /* \"#utility.yul\":5676:5705   */\n      tag_155\n        /* \"#utility.yul\":5698:5704   */\n      dup2\n        /* \"#utility.yul\":5676:5705   */\n      tag_50\n      jump\t// in\n    tag_155:\n        /* \"#utility.yul\":5671:5674   */\n      dup5\n        /* \"#utility.yul\":5667:5706   */\n      add\n        /* \"#utility.yul\":5660:5706   */\n      swap2\n      pop\n        /* \"#utility.yul\":5427:5712   */\n      pop\n        /* \"#utility.yul\":5335:5712   */\n      swap3\n      swap2\n      pop\n      pop\n      jump\t// out\n        /* \"#utility.yul\":5718:5836   */\n    tag_66:\n        /* \"#utility.yul\":5805:5829   */\n      tag_157\n        /* \"#utility.yul\":5823:5828   */\n      dup2\n        /* \"#utility.yul\":5805:5829   */\n      tag_58\n      jump\t// in\n    tag_157:\n        /* \"#utility.yul\":5800:5803   */\n      dup3\n        /* \"#utility.yul\":5793:5830   */\n      mstore\n        /* \"#utility.yul\":5718:5836   */\n      pop\n      pop\n      jump\t// out\n        /* \"#utility.yul\":5842:6265   */\n    tag_20:\n        /* \"#utility.yul\":5983:5987   */\n      0x00\n        /* \"#utility.yul\":6021:6023   */\n      0x40\n        /* \"#utility.yul\":6010:6019   */\n      dup3\n        /* \"#utility.yul\":6006:6024   */\n      add\n        /* \"#utility.yul\":5998:6024   */\n      swap1\n      pop\n        /* \"#utility.yul\":6070:6079   */\n      dup2\n        /* \"#utility.yul\":6064:6068   */\n      dup2\n        /* \"#utility.yul\":6060:6080   */\n      sub\n        /* \"#utility.yul\":6056:6057   */\n      0x00\n        /* \"#utility.yul\":6045:6054   */\n      dup4\n        /* \"#utility.yul\":6041:6058   */\n      add\n        /* \"#utility.yul\":6034:6081   */\n      mstore\n        /* \"#utility.yul\":6098:6176   */\n      tag_159\n        /* \"#utility.yul\":6171:6175   */\n      dup2\n        /* \"#utility.yul\":6162:6168   */\n      dup6\n        /* \"#utility.yul\":6098:6176   */\n      tag_65\n      jump\t// in\n    tag_159:\n        /* \"#utility.yul\":6090:6176   */\n      swap1\n      pop\n        /* \"#utility.yul\":6186:6258   */\n      tag_160\n        /* \"#utility.yul\":6254:6256   */\n      0x20\n        /* \"#utility.yul\":6243:6252   */\n      dup4\n        /* \"#utility.yul\":6239:6257   */\n      add\n        /* \"#utility.yul\":6230:6236   */\n      dup5\n        /* \"#utility.yul\":6186:6258   */\n      tag_66\n      jump\t// in\n    tag_160:\n        /* \"#utility.yul\":5842:6265   */\n      swap4\n      swap3\n      pop\n      pop\n      pop\n      jump\t// out\n        /* \"#utility.yul\":6271:6432   */\n    tag_67:\n        /* \"#utility.yul\":6411:6424   */\n      0x4e6f7420616c6c6f776564000000000000000000000000000000000000000000\n        /* \"#utility.yul\":6407:6408   */\n      0x00\n        /* \"#utility.yul\":6399:6405   */\n      dup3\n        /* \"#utility.yul\":6395:6409   */\n      add\n        /* \"#utility.yul\":6388:6425   */\n      mstore\n        /* \"#utility.yul\":6271:6432   */\n      pop\n      jump\t// out\n        /* \"#utility.yul\":6438:6804   */\n    tag_68:\n        /* \"#utility.yul\":6580:6583   */\n      0x00\n        /* \"#utility.yul\":6601:6668   */\n      tag_163\n        /* \"#utility.yul\":6665:6667   */\n      0x0b\n        /* \"#utility.yul\":6660:6663   */\n      dup4\n        /* \"#utility.yul\":6601:6668   */\n      tag_63\n      jump\t// in\n    tag_163:\n        /* \"#utility.yul\":6594:6668   */\n      swap2\n      pop\n        /* \"#utility.yul\":6677:6770   */\n      tag_164\n        /* \"#utility.yul\":6766:6769   */\n      dup3\n        /* \"#utility.yul\":6677:6770   */\n      tag_67\n      jump\t// in\n    tag_164:\n        /* \"#utility.yul\":6795:6797   */\n      0x20\n        /* \"#utility.yul\":6790:6793   */\n      dup3\n        /* \"#utility.yul\":6786:6798   */\n      add\n        /* \"#utility.yul\":6779:6798   */\n      swap1\n      pop\n        /* \"#utility.yul\":6438:6804   */\n      swap2\n      swap1\n      pop\n      jump\t// out\n        /* \"#utility.yul\":6810:7229   */\n    tag_26:\n        /* \"#utility.yul\":6976:6980   */\n      0x00\n        /* \"#utility.yul\":7014:7016   */\n      0x20\n        /* \"#utility.yul\":7003:7012   */\n      dup3\n        /* \"#utility.yul\":6999:7017   */\n      add\n        /* \"#utility.yul\":6991:7017   */\n      swap1\n      pop\n        /* \"#utility.yul\":7063:7072   */\n      dup2\n        /* \"#utility.yul\":7057:7061   */\n      dup2\n        /* \"#utility.yul\":7053:7073   */\n      sub\n        /* \"#utility.yul\":7049:7050   */\n      0x00\n        /* \"#utility.yul\":7038:7047   */\n      dup4\n        /* \"#utility.yul\":7034:7051   */\n      add\n        /* \"#utility.yul\":7027:7074   */\n      mstore\n        /* \"#utility.yul\":7091:7222   */\n      tag_166\n        /* \"#utility.yul\":7217:7221   */\n      dup2\n        /* \"#utility.yul\":7091:7222   */\n      tag_68\n      jump\t// in\n    tag_166:\n        /* \"#utility.yul\":7083:7222   */\n      swap1\n      pop\n        /* \"#utility.yul\":6810:7229   */\n      swap2\n      swap1\n      pop\n      jump\t// out\n        /* \"#utility.yul\":7235:7403   */\n    tag_69:\n        /* \"#utility.yul\":7375:7395   */\n      0x506c617965722069732072657175697265640000000000000000000000000000\n        /* \"#utility.yul\":7371:7372   */\n      0x00\n        /* \"#utility.yul\":7363:7369   */\n      dup3\n        /* \"#utility.yul\":7359:7373   */\n      add\n        /* \"#utility.yul\":7352:7396   */\n      mstore\n        /* \"#utility.yul\":7235:7403   */\n      pop\n      jump\t// out\n        /* \"#utility.yul\":7409:7775   */\n    tag_70:\n        /* \"#utility.yul\":7551:7554   */\n      0x00\n        /* \"#utility.yul\":7572:7639   */\n      tag_169\n        /* \"#utility.yul\":7636:7638   */\n      0x12\n        /* \"#utility.yul\":7631:7634   */\n      dup4\n        /* \"#utility.yul\":7572:7639   */\n      tag_63\n      jump\t// in\n    tag_169:\n        /* \"#utility.yul\":7565:7639   */\n      swap2\n      pop\n        /* \"#utility.yul\":7648:7741   */\n      tag_170\n        /* \"#utility.yul\":7737:7740   */\n      dup3\n        /* \"#utility.yul\":7648:7741   */\n      tag_69\n      jump\t// in\n    tag_170:\n        /* \"#utility.yul\":7766:7768   */\n      0x20\n        /* \"#utility.yul\":7761:7764   */\n      dup3\n        /* \"#utility.yul\":7757:7769   */\n      add\n        /* \"#utility.yul\":7750:7769   */\n      swap1\n      pop\n        /* \"#utility.yul\":7409:7775   */\n      swap2\n      swap1\n      pop\n      jump\t// out\n        /* \"#utility.yul\":7781:8200   */\n    tag_29:\n        /* \"#utility.yul\":7947:7951   */\n      0x00\n        /* \"#utility.yul\":7985:7987   */\n      0x20\n        /* \"#utility.yul\":7974:7983   */\n      dup3\n        /* \"#utility.yul\":7970:7988   */\n      add\n        /* \"#utility.yul\":7962:7988   */\n      swap1\n      pop\n        /* \"#utility.yul\":8034:8043   */\n      dup2\n        /* \"#utility.yul\":8028:8032   */\n      dup2\n        /* \"#utility.yul\":8024:8044   */\n      sub\n        /* \"#utility.yul\":8020:8021   */\n      0x00\n        /* \"#utility.yul\":8009:8018   */\n      dup4\n        /* \"#utility.yul\":8005:8022   */\n      add\n        /* \"#utility.yul\":7998:8045   */\n      mstore\n        /* \"#utility.yul\":8062:8193   */\n      tag_172\n        /* \"#utility.yul\":8188:8192   */\n      dup2\n        /* \"#utility.yul\":8062:8193   */\n      tag_70\n      jump\t// in\n    tag_172:\n        /* \"#utility.yul\":8054:8193   */\n      swap1\n      pop\n        /* \"#utility.yul\":7781:8200   */\n      swap2\n      swap1\n      pop\n      jump\t// out\n        /* \"#utility.yul\":8206:8386   */\n    tag_71:\n        /* \"#utility.yul\":8254:8331   */\n      0x4e487b7100000000000000000000000000000000000000000000000000000000\n        /* \"#utility.yul\":8251:8252   */\n      0x00\n        /* \"#utility.yul\":8244:8332   */\n      mstore\n        /* \"#utility.yul\":8351:8355   */\n      0x22\n        /* \"#utility.yul\":8348:8349   */\n      0x04\n        /* \"#utility.yul\":8341:8356   */\n      mstore\n        /* \"#utility.yul\":8375:8379   */\n      0x24\n        /* \"#utility.yul\":8372:8373   */\n      0x00\n        /* \"#utility.yul\":8365:8380   */\n      revert\n        /* \"#utility.yul\":8392:8712   */\n    tag_33:\n        /* \"#utility.yul\":8436:8442   */\n      0x00\n        /* \"#utility.yul\":8473:8474   */\n      0x02\n        /* \"#utility.yul\":8467:8471   */\n      dup3\n        /* \"#utility.yul\":8463:8475   */\n      div\n        /* \"#utility.yul\":8453:8475   */\n      swap1\n      pop\n        /* \"#utility.yul\":8520:8521   */\n      0x01\n        /* \"#utility.yul\":8514:8518   */\n      dup3\n        /* \"#utility.yul\":8510:8522   */\n      and\n        /* \"#utility.yul\":8541:8559   */\n      dup1\n        /* \"#utility.yul\":8531:8612   */\n      tag_175\n      jumpi\n        /* \"#utility.yul\":8597:8601   */\n      0x7f\n        /* \"#utility.yul\":8589:8595   */\n      dup3\n        /* \"#utility.yul\":8585:8602   */\n      and\n        /* \"#utility.yul\":8575:8602   */\n      swap2\n      pop\n        /* \"#utility.yul\":8531:8612   */\n    tag_175:\n        /* \"#utility.yul\":8659:8661   */\n      0x20\n        /* \"#utility.yul\":8651:8657   */\n      dup3\n        /* \"#utility.yul\":8648:8662   */\n      lt\n        /* \"#utility.yul\":8628:8646   */\n      dup2\n        /* \"#utility.yul\":8625:8663   */\n      sub\n        /* \"#utility.yul\":8622:8706   */\n      tag_176\n      jumpi\n        /* \"#utility.yul\":8678:8696   */\n      tag_177\n      tag_71\n      jump\t// in\n    tag_177:\n        /* \"#utility.yul\":8622:8706   */\n    tag_176:\n        /* \"#utility.yul\":8443:8712   */\n      pop\n        /* \"#utility.yul\":8392:8712   */\n      swap2\n      swap1\n      pop\n      jump\t// out\n        /* \"#utility.yul\":8718:8859   */\n    tag_72:\n        /* \"#utility.yul\":8767:8771   */\n      0x00\n        /* \"#utility.yul\":8790:8793   */\n      dup2\n        /* \"#utility.yul\":8782:8793   */\n      swap1\n      pop\n        /* \"#utility.yul\":8813:8816   */\n      dup2\n        /* \"#utility.yul\":8810:8811   */\n      0x00\n        /* \"#utility.yul\":8803:8817   */\n      mstore\n        /* \"#utility.yul\":8847:8851   */\n      0x20\n        /* \"#utility.yul\":8844:8845   */\n      0x00\n        /* \"#utility.yul\":8834:8852   */\n      keccak256\n        /* \"#utility.yul\":8826:8852   */\n      swap1\n      pop\n        /* \"#utility.yul\":8718:8859   */\n      swap2\n      swap1\n      pop\n      jump\t// out\n        /* \"#utility.yul\":8865:8958   */\n    tag_73:\n        /* \"#utility.yul\":8902:8908   */\n      0x00\n        /* \"#utility.yul\":8949:8951   */\n      0x20\n        /* \"#utility.yul\":8944:8946   */\n      0x1f\n        /* \"#utility.yul\":8937:8942   */\n      dup4\n        /* \"#utility.yul\":8933:8947   */\n      add\n        /* \"#utility.yul\":8929:8952   */\n      div\n        /* \"#utility.yul\":8919:8952   */\n      swap1\n      pop\n        /* \"#utility.yul\":8865:8958   */\n      swap2\n      swap1\n      pop\n      jump\t// out\n        /* \"#utility.yul\":8964:9071   */\n    tag_74:\n        /* \"#utility.yul\":9008:9016   */\n      0x00\n        /* \"#utility.yul\":9058:9063   */\n      dup3\n        /* \"#utility.yul\":9052:9056   */\n      dup3\n        /* \"#utility.yul\":9048:9064   */\n      shl\n        /* \"#utility.yul\":9027:9064   */\n      swap1\n      pop\n        /* \"#utility.yul\":8964:9071   */\n      swap3\n      swap2\n      pop\n      pop\n      jump\t// out\n        /* \"#utility.yul\":9077:9470   */\n    tag_75:\n        /* \"#utility.yul\":9146:9152   */\n      0x00\n        /* \"#utility.yul\":9196:9197   */\n      0x08\n        /* \"#utility.yul\":9184:9194   */\n      dup4\n        /* \"#utility.yul\":9180:9198   */\n      mul\n        /* \"#utility.yul\":9219:9316   */\n      tag_182\n        /* \"#utility.yul\":9249:9315   */\n      0xffffffffffffffffffffffffffffffffffffffffffffffffffffffffffffffff\n        /* \"#utility.yul\":9238:9247   */\n      dup3\n        /* \"#utility.yul\":9219:9316   */\n      tag_74\n      jump\t// in\n    tag_182:\n        /* \"#utility.yul\":9337:9376   */\n      tag_183\n        /* \"#utility.yul\":9367:9375   */\n      dup7\n        /* \"#utility.yul\":9356:9365   */\n      dup4\n        /* \"#utility.yul\":9337:9376   */\n      tag_74\n      jump\t// in\n    tag_183:\n        /* \"#utility.yul\":9325:9376   */\n      swap6\n      pop\n        /* \"#utility.yul\":9409:9413   */\n      dup1\n        /* \"#utility.yul\":9405:9414   */\n      not\n        /* \"#utility.yul\":9398:9403   */\n      dup5\n        /* \"#utility.yul\":9394:9415   */\n      and\n        /* \"#utility.yul\":9385:9415   */\n      swap4\n      pop\n        /* \"#utility.yul\":9458:9462   */\n      dup1\n        /* \"#utility.yul\":9448:9456   */\n      dup7\n        /* \"#utility.yul\":9444:9463   */\n      and\n        /* \"#utility.yul\":9437:9442   */\n      dup5\n        /* \"#utility.yul\":9434:9464   */\n      or\n        /* \"#utility.yul\":9424:9464   */\n      swap3\n      pop\n        /* \"#utility.yul\":9153:9470   */\n      pop\n      pop\n        /* \"#utility.yul\":9077:9470   */\n      swap4\n      swap3\n      pop\n      pop\n      pop\n      jump\t// out\n        /* \"#utility.yul\":9476:9536   */\n    tag_76:\n        /* \"#utility.yul\":9504:9507   */\n      0x00\n        /* \"#utility.yul\":9525:9530   */\n      dup2\n        /* \"#utility.yul\":9518:9530   */\n      swap1\n      pop\n        /* \"#utility.yul\":9476:9536   */\n      swap2\n      swap1\n      pop\n      jump\t// out\n        /* \"#utility.yul\":9542:9684   */\n    tag_77:\n        /* \"#utility.yul\":9592:9601   */\n      0x00\n        /* \"#utility.yul\":9625:9678   */\n      tag_186\n        /* \"#utility.yul\":9643:9677   */\n      tag_187\n        /* \"#utility.yul\":9652:9676   */\n      tag_188\n        /* \"#utility.yul\":9670:9675   */\n      dup5\n        /* \"#utility.yul\":9652:9676   */\n      tag_58\n      jump\t// in\n    tag_188:\n        /* \"#utility.yul\":9643:9677   */\n      tag_76\n      jump\t// in\n    tag_187:\n        /* \"#utility.yul\":9625:9678   */\n      tag_58\n      jump\t// in\n    tag_186:\n        /* \"#utility.yul\":9612:9678   */\n      swap1\n      pop\n        /* \"#utility.yul\":9542:9684   */\n      swap2\n      swap1\n      pop\n      jump\t// out\n        /* \"#utility.yul\":9690:9765   */\n    tag_78:\n        /* \"#utility.yul\":9733:9736   */\n      0x00\n        /* \"#utility.yul\":9754:9759   */\n      dup2\n        /* \"#utility.yul\":9747:9759   */\n      swap1\n      pop\n        /* \"#utility.yul\":9690:9765   */\n      swap2\n      swap1\n      pop\n      jump\t// out\n        /* \"#utility.yul\":9771:10040   */\n    tag_79:\n        /* \"#utility.yul\":9881:9920   */\n      tag_191\n        /* \"#utility.yul\":9912:9919   */\n      dup4\n        /* \"#utility.yul\":9881:9920   */\n      tag_77\n      jump\t// in\n    tag_191:\n        /* \"#utility.yul\":9942:10033   */\n      tag_192\n        /* \"#utility.yul\":9991:10032   */\n      tag_193\n        /* \"#utility.yul\":10015:10031   */\n      dup3\n        /* \"#utility.yul\":9991:10032   */\n      tag_78\n      jump\t// in\n    tag_193:\n        /* \"#utility.yul\":9983:9989   */\n      dup5\n        /* \"#utility.yul\":9976:9980   */\n      dup5\n        /* \"#utility.yul\":9970:9981   */\n      sload\n        /* \"#utility.yul\":9942:10033   */\n      tag_75\n      jump\t// in\n    tag_192:\n        /* \"#utility.yul\":9936:9940   */\n      dup3\n        /* \"#utility.yul\":9929:10034   */\n      sstore\n        /* \"#utility.yul\":9847:10040   */\n      pop\n        /* \"#utility.yul\":9771:10040   */\n      pop\n      pop\n      pop\n      jump\t// out\n        /* \"#utility.yul\":10046:10119   */\n    tag_80:\n        /* \"#utility.yul\":10091:10094   */\n      0x00\n        /* \"#utility.yul\":10112:10113   */\n      0x00\n        /* \"#utility.yul\":10105:10113   */\n      swap1\n      pop\n        /* \"#utility.yul\":10046:10119   */\n      swap1\n      jump\t// out\n        /* \"#utility.yul\":10125:10314   */\n    tag_81:\n        /* \"#utility.yul\":10202:10234   */\n      tag_196\n      tag_80\n      jump\t// in\n    tag_196:\n        /* \"#utility.yul\":10243:10308   */\n      tag_197\n        /* \"#utility.yul\":10301:10307   */\n      dup2\n        /* \"#utility.yul\":10293:10299   */\n      dup5\n        /* \"#utility.yul\":10287:10291   */\n      dup5\n        /* \"#utility.yul\":10243:10308   */\n      tag_79\n      jump\t// in\n    tag_197:\n        /* \"#utility.yul\":10178:10314   */\n      pop\n        /* \"#utility.yul\":10125:10314   */\n      pop\n      pop\n      jump\t// out\n        /* \"#utility.yul\":10320:10506   */\n    tag_82:\n        /* \"#utility.yul\":10380:10500   */\n    tag_199:\n        /* \"#utility.yul\":10397:10400   */\n      dup2\n        /* \"#utility.yul\":10390:10395   */\n      dup2\n        /* \"#utility.yul\":10387:10401   */\n      lt\n        /* \"#utility.yul\":10380:10500   */\n      iszero\n      tag_201\n      jumpi\n        /* \"#utility.yul\":10451:10490   */\n      tag_202\n        /* \"#utility.yul\":10488:10489   */\n      0x00\n        /* \"#utility.yul\":10481:10486   */\n      dup3\n        /* \"#utility.yul\":10451:10490   */\n      tag_81\n      jump\t// in\n    tag_202:\n        /* \"#utility.yul\":10424:10425   */\n      0x01\n        /* \"#utility.yul\":10417:10422   */\n      dup2\n        /* \"#utility.yul\":10413:10426   */\n      add\n        /* \"#utility.yul\":10404:10426   */\n      swap1\n      pop\n        /* \"#utility.yul\":10380:10500   */\n      jump(tag_199)\n    tag_201:\n        /* \"#utility.yul\":10320:10506   */\n      pop\n      pop\n      jump\t// out\n        /* \"#utility.yul\":10512:11055   */\n    tag_83:\n        /* \"#utility.yul\":10613:10615   */\n      0x1f\n        /* \"#utility.yul\":10608:10611   */\n      dup3\n        /* \"#utility.yul\":10605:10616   */\n      gt\n        /* \"#utility.yul\":10602:11048   */\n      iszero\n      tag_204\n      jumpi\n        /* \"#utility.yul\":10647:10685   */\n      tag_205\n        /* \"#utility.yul\":10679:10684   */\n      dup2\n        /* \"#utility.yul\":10647:10685   */\n      tag_72\n      jump\t// in\n    tag_205:\n        /* \"#utility.yul\":10731:10760   */\n      tag_206\n        /* \"#utility.yul\":10749:10759   */\n      dup5\n        /* \"#utility.yul\":10731:10760   */\n      tag_73\n      jump\t// in\n    tag_206:\n        /* \"#utility.yul\":10721:10729   */\n      dup2\n        /* \"#utility.yul\":10717:10761   */\n      add\n        /* \"#utility.yul\":10914:10916   */\n      0x20\n        /* \"#utility.yul\":10902:10912   */\n      dup6\n        /* \"#utility.yul\":10899:10917   */\n      lt\n        /* \"#utility.yul\":10896:10945   */\n      iszero\n      tag_207\n      jumpi\n        /* \"#utility.yul\":10935:10943   */\n      dup2\n        /* \"#utility.yul\":10920:10943   */\n      swap1\n      pop\n        /* \"#utility.yul\":10896:10945   */\n    tag_207:\n        /* \"#utility.yul\":10958:11038   */\n      tag_208\n        /* \"#utility.yul\":11014:11036   */\n      tag_209\n        /* \"#utility.yul\":11032:11035   */\n      dup6\n        /* \"#utility.yul\":11014:11036   */\n      tag_73\n      jump\t// in\n    tag_209:\n        /* \"#utility.yul\":11004:11012   */\n      dup4\n        /* \"#utility.yul\":11000:11037   */\n      add\n        /* \"#utility.yul\":10987:10998   */\n      dup3\n        /* \"#utility.yul\":10958:11038   */\n      tag_82\n      jump\t// in\n    tag_208:\n        /* \"#utility.yul\":10617:11048   */\n      pop\n      pop\n        /* \"#utility.yul\":10602:11048   */\n    tag_204:\n        /* \"#utility.yul\":10512:11055   */\n      pop\n      pop\n      pop\n      jump\t// out\n        /* \"#utility.yul\":11061:11178   */\n    tag_84:\n        /* \"#utility.yul\":11115:11123   */\n      0x00\n        /* \"#utility.yul\":11165:11170   */\n      dup3\n        /* \"#utility.yul\":11159:11163   */\n      dup3\n        /* \"#utility.yul\":11155:11171   */\n      shr\n        /* \"#utility.yul\":11134:11171   */\n      swap1\n      pop\n        /* \"#utility.yul\":11061:11178   */\n      swap3\n      swap2\n      pop\n      pop\n      jump\t// out\n        /* \"#utility.yul\":11184:11353   */\n    tag_85:\n        /* \"#utility.yul\":11228:11234   */\n      0x00\n        /* \"#utility.yul\":11261:11312   */\n      tag_212\n        /* \"#utility.yul\":11309:11310   */\n      0x00\n        /* \"#utility.yul\":11305:11311   */\n      not\n        /* \"#utility.yul\":11297:11302   */\n      dup5\n        /* \"#utility.yul\":11294:11295   */\n      0x08\n        /* \"#utility.yul\":11290:11303   */\n      mul\n        /* \"#utility.yul\":11261:11312   */\n      tag_84\n      jump\t// in\n    tag_212:\n        /* \"#utility.yul\":11257:11313   */\n      not\n        /* \"#utility.yul\":11342:11346   */\n      dup1\n        /* \"#utility.yul\":11336:11340   */\n      dup4\n        /* \"#utility.yul\":11332:11347   */\n      and\n        /* \"#utility.yul\":11322:11347   */\n      swap2\n      pop\n        /* \"#utility.yul\":11235:11353   */\n      pop\n        /* \"#utility.yul\":11184:11353   */\n      swap3\n      swap2\n      pop\n      pop\n      jump\t// out\n        /* \"#utility.yul\":11358:11653   */\n    tag_86:\n        /* \"#utility.yul\":11434:11438   */\n      0x00\n        /* \"#utility.yul\":11580:11609   */\n      tag_214\n        /* \"#utility.yul\":11605:11608   */\n      dup4\n        /* \"#utility.yul\":11599:11603   */\n      dup4\n        /* \"#utility.yul\":11580:11609   */\n      tag_85\n      jump\t// in\n    tag_214:\n        /* \"#utility.yul\":11572:11609   */\n      swap2\n      pop\n        /* \"#utility.yul\":11642:11645   */\n      dup3\n        /* \"#utility.yul\":11639:11640   */\n      0x02\n        /* \"#utility.yul\":11635:11646   */\n      mul\n        /* \"#utility.yul\":11629:11633   */\n      dup3\n        /* \"#utility.yul\":11626:11647   */\n      or\n        /* \"#utility.yul\":11618:11647   */\n      swap1\n      pop\n        /* \"#utility.yul\":11358:11653   */\n      swap3\n      swap2\n      pop\n      pop\n      jump\t// out\n        /* \"#utility.yul\":11658:13053   */\n    tag_31:\n        /* \"#utility.yul\":11775:11812   */\n      tag_216\n        /* \"#utility.yul\":11808:11811   */\n      dup3\n        /* \"#utility.yul\":11775:11812   */\n      tag_62\n      jump\t// in\n    tag_216:\n        /* \"#utility.yul\":11877:11895   */\n      0xffffffffffffffff\n        /* \"#utility.yul\":11869:11875   */\n      dup2\n        /* \"#utility.yul\":11866:11896   */\n      gt\n        /* \"#utility.yul\":11863:11919   */\n      iszero\n      tag_217\n      jumpi\n        /* \"#utility.yul\":11899:11917   */\n      tag_218\n      tag_51\n      jump\t// in\n    tag_218:\n        /* \"#utility.yul\":11863:11919   */\n    tag_217:\n        /* \"#utility.yul\":11943:11981   */\n      tag_219\n        /* \"#utility.yul\":11975:11979   */\n      dup3\n        /* \"#utility.yul\":11969:11980   */\n      sload\n        /* \"#utility.yul\":11943:11981   */\n      tag_33\n      jump\t// in\n    tag_219:\n        /* \"#utility.yul\":12028:12095   */\n      tag_220\n        /* \"#utility.yul\":12088:12094   */\n      dup3\n        /* \"#utility.yul\":12080:12086   */\n      dup3\n        /* \"#utility.yul\":12074:12078   */\n      dup6\n        /* \"#utility.yul\":12028:12095   */\n      tag_83\n      jump\t// in\n    tag_220:\n        /* \"#utility.yul\":12122:12123   */\n      0x00\n        /* \"#utility.yul\":12146:12150   */\n      0x20\n        /* \"#utility.yul\":12133:12150   */\n      swap1\n      pop\n        /* \"#utility.yul\":12178:12180   */\n      0x1f\n        /* \"#utility.yul\":12170:12176   */\n      dup4\n        /* \"#utility.yul\":12167:12181   */\n      gt\n        /* \"#utility.yul\":12195:12196   */\n      0x01\n        /* \"#utility.yul\":12190:12808   */\n      dup2\n      eq\n      tag_222\n      jumpi\n        /* \"#utility.yul\":12852:12853   */\n      0x00\n        /* \"#utility.yul\":12869:12875   */\n      dup5\n        /* \"#utility.yul\":12866:12943   */\n      iszero\n      tag_223\n      jumpi\n        /* \"#utility.yul\":12918:12927   */\n      dup3\n        /* \"#utility.yul\":12913:12916   */\n      dup8\n        /* \"#utility.yul\":12909:12928   */\n      add\n        /* \"#utility.yul\":12903:12929   */\n      mload\n        /* \"#utility.yul\":12894:12929   */\n      swap1\n      pop\n        /* \"#utility.yul\":12866:12943   */\n    tag_223:\n        /* \"#utility.yul\":12969:13036   */\n      tag_224\n        /* \"#utility.yul\":13029:13035   */\n      dup6\n        /* \"#utility.yul\":13022:13027   */\n      dup3\n        /* \"#utility.yul\":12969:13036   */\n      tag_86\n      jump\t// in\n    tag_224:\n        /* \"#utility.yul\":12963:12967   */\n      dup7\n        /* \"#utility.yul\":12956:13037   */\n      sstore\n        /* \"#utility.yul\":12825:13047   */\n      pop\n        /* \"#utility.yul\":12160:13047   */\n      jump(tag_221)\n        /* \"#utility.yul\":12190:12808   */\n    tag_222:\n        /* \"#utility.yul\":12242:12246   */\n      0x1f\n        /* \"#utility.yul\":12238:12247   */\n      not\n        /* \"#utility.yul\":12230:12236   */\n      dup5\n        /* \"#utility.yul\":12226:12248   */\n      and\n        /* \"#utility.yul\":12276:12313   */\n      tag_225\n        /* \"#utility.yul\":12308:12312   */\n      dup7\n        /* \"#utility.yul\":12276:12313   */\n      tag_72\n      jump\t// in\n    tag_225:\n        /* \"#utility.yul\":12335:12336   */\n      0x00\n        /* \"#utility.yul\":12349:12557   */\n    tag_226:\n        /* \"#utility.yul\":12363:12370   */\n      dup3\n        /* \"#utility.yul\":12360:12361   */\n      dup2\n        /* \"#utility.yul\":12357:12371   */\n      lt\n        /* \"#utility.yul\":12349:12557   */\n      iszero\n      tag_228\n      jumpi\n        /* \"#utility.yul\":12442:12451   */\n      dup5\n        /* \"#utility.yul\":12437:12440   */\n      dup10\n        /* \"#utility.yul\":12433:12452   */\n      add\n        /* \"#utility.yul\":12427:12453   */\n      mload\n        /* \"#utility.yul\":12419:12425   */\n      dup3\n        /* \"#utility.yul\":12412:12454   */\n      sstore\n        /* \"#utility.yul\":12493:12494   */\n      0x01\n        /* \"#utility.yul\":12485:12491   */\n      dup3\n        /* \"#utility.yul\":12481:12495   */\n      add\n        /* \"#utility.yul\":12471:12495   */\n      swap2\n      pop\n        /* \"#utility.yul\":12540:12542   */\n      0x20\n        /* \"#utility.yul\":12529:12538   */\n      dup6\n        /* \"#utility.yul\":12525:12543   */\n      add\n        /* \"#utility.yul\":12512:12543   */\n      swap5\n      pop\n        /* \"#utility.yul\":12386:12390   */\n      0x20\n        /* \"#utility.yul\":12383:12384   */\n      dup2\n        /* \"#utility.yul\":12379:12391   */\n      add\n        /* \"#utility.yul\":12374:12391   */\n      swap1\n      pop\n        /* \"#utility.yul\":12349:12557   */\n      jump(tag_226)\n    tag_228:\n        /* \"#utility.yul\":12585:12591   */\n      dup7\n        /* \"#utility.yul\":12576:12583   */\n      dup4\n        /* \"#utility.yul\":12573:12592   */\n      lt\n        /* \"#utility.yul\":12570:12749   */\n      iszero\n      tag_229\n      jumpi\n        /* \"#utility.yul\":12643:12652   */\n      dup5\n        /* \"#utility.yul\":12638:12641   */\n      dup10\n        /* \"#utility.yul\":12634:12653   */\n      add\n        /* \"#utility.yul\":12628:12654   */\n      mload\n        /* \"#utility.yul\":12686:12734   */\n      tag_230\n        /* \"#utility.yul\":12728:12732   */\n      0x1f\n        /* \"#utility.yul\":12720:12726   */\n      dup10\n        /* \"#utility.yul\":12716:12733   */\n      and\n        /* \"#utility.yul\":12705:12714   */\n      dup3\n        /* \"#utility.yul\":12686:12734   */\n      tag_85\n      jump\t// in\n    tag_230:\n        /* \"#utility.yul\":12678:12684   */\n      dup4\n        /* \"#utility.yul\":12671:12735   */\n      sstore\n        /* \"#utility.yul\":12593:12749   */\n      pop\n        /* \"#utility.yul\":12570:12749   */\n    tag_229:\n        /* \"#utility.yul\":12795:12796   */\n      0x01\n        /* \"#utility.yul\":12791:12792   */\n      0x02\n        /* \"#utility.yul\":12783:12789   */\n      dup9\n        /* \"#utility.yul\":12779:12793   */\n      mul\n        /* \"#utility.yul\":12775:12797   */\n      add\n        /* \"#utility.yul\":12769:12773   */\n      dup9\n        /* \"#utility.yul\":12762:12798   */\n      sstore\n        /* \"#utility.yul\":12197:12808   */\n      pop\n      pop\n      pop\n        /* \"#utility.yul\":12160:13047   */\n    tag_221:\n      pop\n        /* \"#utility.yul\":11750:13053   */\n      pop\n      pop\n      pop\n        /* \"#utility.yul\":11658:13053   */\n      pop\n      pop\n      jump\t// out\n        /* \"#utility.yul\":13059:13239   */\n    tag_87:\n        /* \"#utility.yul\":13107:13184   */\n      0x4e487b7100000000000000000000000000000000000000000000000000000000\n        /* \"#utility.yul\":13104:13105   */\n      0x00\n        /* \"#utility.yul\":13097:13185   */\n      mstore\n        /* \"#utility.yul\":13204:13208   */\n      0x11\n        /* \"#utility.yul\":13201:13202   */\n      0x04\n        /* \"#utility.yul\":13194:13209   */\n      mstore\n        /* \"#utility.yul\":13228:13232   */\n      0x24\n        /* \"#utility.yul\":13225:13226   */\n      0x00\n        /* \"#utility.yul\":13218:13233   */\n      revert\n        /* \"#utility.yul\":13245:13436   */\n    tag_40:\n        /* \"#utility.yul\":13285:13288   */\n      0x00\n        /* \"#utility.yul\":13304:13324   */\n      tag_233\n        /* \"#utility.yul\":13322:13323   */\n      dup3\n        /* \"#utility.yul\":13304:13324   */\n      tag_58\n      jump\t// in\n    tag_233:\n        /* \"#utility.yul\":13299:13324   */\n      swap2\n      pop\n        /* \"#utility.yul\":13338:13358   */\n      tag_234\n        /* \"#utility.yul\":13356:13357   */\n      dup4\n        /* \"#utility.yul\":13338:13358   */\n      tag_58\n      jump\t// in\n    tag_234:\n        /* \"#utility.yul\":13333:13358   */\n      swap3\n      pop\n        /* \"#utility.yul\":13381:13382   */\n      dup3\n        /* \"#utility.yul\":13378:13379   */\n      dup3\n        /* \"#utility.yul\":13374:13383   */\n      add\n        /* \"#utility.yul\":13367:13383   */\n      swap1\n      pop\n        /* \"#utility.yul\":13402:13405   */\n      dup1\n        /* \"#utility.yul\":13399:13400   */\n      dup3\n        /* \"#utility.yul\":13396:13406   */\n      gt\n        /* \"#utility.yul\":13393:13429   */\n      iszero\n      tag_235\n      jumpi\n        /* \"#utility.yul\":13409:13427   */\n      tag_236\n      tag_87\n      jump\t// in\n    tag_236:\n        /* \"#utility.yul\":13393:13429   */\n    tag_235:\n        /* \"#utility.yul\":13245:13436   */\n      swap3\n      swap2\n      pop\n      pop\n      jump\t// out\n\n    auxdata: 0xa2646970667358221220c5589d03c1ed3223cc961fc039adb7366d2cc9465647a3439d594ffa2a33e3c464736f6c634300081e0033\n}\n",
				"bytecode": {
					"linkReferences": {},
					"object": "6080604052348015600e575f5ffd5b50335f5f6101000a81548173ffffffffffffffffffffffffffffffffffffffff021916908373ffffffffffffffffffffffffffffffffffffffff160217905550610aea8061005b5f395ff3fe608060405234801561000f575f5ffd5b506004361061004a575f3560e01c80634307a4bf1461004e5780638da5cb5b1461006a578063b5fd282a14610088578063c1b39af6146100b9575b5f5ffd5b6100686004803603810190610063919061055c565b6100c3565b005b61007261025c565b60405161007f91906105d7565b60405180910390f35b6100a2600480360381019061009d91906105f0565b610280565b6040516100b092919061068a565b60405180910390f35b6100c1610326565b005b3373ffffffffffffffffffffffffffffffffffffffff165f5f9054906101000a900473ffffffffffffffffffffffffffffffffffffffff1673ffffffffffffffffffffffffffffffffffffffff1614610151576040517f08c379a000000000000000000000000000000000000000000000000000000000815260040161014890610702565b60405180910390fd5b5f5f9054906101000a900473ffffffffffffffffffffffffffffffffffffffff1673ffffffffffffffffffffffffffffffffffffffff163373ffffffffffffffffffffffffffffffffffffffff16146101df576040517f08c379a00000000000000000000000000000000000000000000000000000000081526004016101d69061076a565b60405180910390fd5b5f60405180604001604052808481526020018381525090508060015f8673ffffffffffffffffffffffffffffffffffffffff1673ffffffffffffffffffffffffffffffffffffffff1681526020019081526020015f205f820151815f0190816102489190610985565b506020820151816001015590505050505050565b5f5f9054906101000a900473ffffffffffffffffffffffffffffffffffffffff1681565b6001602052805f5260405f205f91509050805f01805461029f906107b5565b80601f01602080910402602001604051908101604052809291908181526020018280546102cb906107b5565b80156103165780601f106102ed57610100808354040283529160200191610316565b820191905f5260205f20905b8154815290600101906020018083116102f957829003601f168201915b5050505050908060010154905082565b5f60015f3373ffffffffffffffffffffffffffffffffffffffff1673ffffffffffffffffffffffffffffffffffffffff1681526020019081526020015f209050600a81600101546103779190610a81565b816001018190555050565b5f604051905090565b5f5ffd5b5f5ffd5b5f73ffffffffffffffffffffffffffffffffffffffff82169050919050565b5f6103bc82610393565b9050919050565b6103cc816103b2565b81146103d6575f5ffd5b50565b5f813590506103e7816103c3565b92915050565b5f5ffd5b5f5ffd5b5f601f19601f8301169050919050565b7f4e487b71000000000000000000000000000000000000000000000000000000005f52604160045260245ffd5b61043b826103f5565b810181811067ffffffffffffffff8211171561045a57610459610405565b5b80604052505050565b5f61046c610382565b90506104788282610432565b919050565b5f67ffffffffffffffff82111561049757610496610405565b5b6104a0826103f5565b9050602081019050919050565b828183375f83830152505050565b5f6104cd6104c88461047d565b610463565b9050828152602081018484840111156104e9576104e86103f1565b5b6104f48482856104ad565b509392505050565b5f82601f8301126105105761050f6103ed565b5b81356105208482602086016104bb565b91505092915050565b5f819050919050565b61053b81610529565b8114610545575f5ffd5b50565b5f8135905061055681610532565b92915050565b5f5f5f606084860312156105735761057261038b565b5b5f610580868287016103d9565b935050602084013567ffffffffffffffff8111156105a1576105a061038f565b5b6105ad868287016104fc565b92505060406105be86828701610548565b9150509250925092565b6105d1816103b2565b82525050565b5f6020820190506105ea5f8301846105c8565b92915050565b5f602082840312156106055761060461038b565b5b5f610612848285016103d9565b91505092915050565b5f81519050919050565b5f82825260208201905092915050565b8281835e5f83830152505050565b5f61064d8261061b565b6106578185610625565b9350610667818560208601610635565b610670816103f5565b840191505092915050565b61068481610529565b82525050565b5f6040820190508181035f8301526106a28185610643565b90506106b1602083018461067b565b9392505050565b7f4e6f7420616c6c6f7765640000000000000000000000000000000000000000005f82015250565b5f6106ec600b83610625565b91506106f7826106b8565b602082019050919050565b5f6020820190508181035f830152610719816106e0565b9050919050565b7f506c6179657220697320726571756972656400000000000000000000000000005f82015250565b5f610754601283610625565b915061075f82610720565b602082019050919050565b5f6020820190508181035f83015261078181610748565b9050919050565b7f4e487b71000000000000000000000000000000000000000000000000000000005f52602260045260245ffd5b5f60028204905060018216806107cc57607f821691505b6020821081036107df576107de610788565b5b50919050565b5f819050815f5260205f209050919050565b5f6020601f8301049050919050565b5f82821b905092915050565b5f600883026108417fffffffffffffffffffffffffffffffffffffffffffffffffffffffffffffffff82610806565b61084b8683610806565b95508019841693508086168417925050509392505050565b5f819050919050565b5f61088661088161087c84610529565b610863565b610529565b9050919050565b5f819050919050565b61089f8361086c565b6108b36108ab8261088d565b848454610812565b825550505050565b5f5f905090565b6108ca6108bb565b6108d5818484610896565b505050565b5b818110156108f8576108ed5f826108c2565b6001810190506108db565b5050565b601f82111561093d5761090e816107e5565b610917846107f7565b81016020851015610926578190505b61093a610932856107f7565b8301826108da565b50505b505050565b5f82821c905092915050565b5f61095d5f1984600802610942565b1980831691505092915050565b5f610975838361094e565b9150826002028217905092915050565b61098e8261061b565b67ffffffffffffffff8111156109a7576109a6610405565b5b6109b182546107b5565b6109bc8282856108fc565b5f60209050601f8311600181146109ed575f84156109db578287015190505b6109e5858261096a565b865550610a4c565b601f1984166109fb866107e5565b5f5b82811015610a22578489015182556001820191506020850194506020810190506109fd565b86831015610a3f5784890151610a3b601f89168261094e565b8355505b6001600288020188555050505b505050505050565b7f4e487b71000000000000000000000000000000000000000000000000000000005f52601160045260245ffd5b5f610a8b82610529565b9150610a9683610529565b9250828201905080821115610aae57610aad610a54565b5b9291505056fea2646970667358221220c5589d03c1ed3223cc961fc039adb7366d2cc9465647a3439d594ffa2a33e3c464736f6c634300081e0033",
					"opcodes": "PUSH1 0x80 PUSH1 0x40 MSTORE CALLVALUE DUP1 ISZERO PUSH1 0xE JUMPI PUSH0 PUSH0 REVERT JUMPDEST POP CALLER PUSH0 PUSH0 PUSH2 0x100 EXP DUP2 SLOAD DUP2 PUSH20 0xFFFFFFFFFFFFFFFFFFFFFFFFFFFFFFFFFFFFFFFF MUL NOT AND SWAP1 DUP4 PUSH20 0xFFFFFFFFFFFFFFFFFFFFFFFFFFFFFFFFFFFFFFFF AND MUL OR SWAP1 SSTORE POP PUSH2 0xAEA DUP1 PUSH2 0x5B PUSH0 CODECOPY PUSH0 RETURN INVALID PUSH1 0x80 PUSH1 0x40 MSTORE CALLVALUE DUP1 ISZERO PUSH2 0xF JUMPI PUSH0 PUSH0 REVERT JUMPDEST POP PUSH1 0x4 CALLDATASIZE LT PUSH2 0x4A JUMPI PUSH0 CALLDATALOAD PUSH1 0xE0 SHR DUP1 PUSH4 0x4307A4BF EQ PUSH2 0x4E JUMPI DUP1 PUSH4 0x8DA5CB5B EQ PUSH2 0x6A JUMPI DUP1 PUSH4 0xB5FD282A EQ PUSH2 0x88 JUMPI DUP1 PUSH4 0xC1B39AF6 EQ PUSH2 0xB9 JUMPI JUMPDEST PUSH0 PUSH0 REVERT JUMPDEST PUSH2 0x68 PUSH1 0x4 DUP1 CALLDATASIZE SUB DUP2 ADD SWAP1 PUSH2 0x63 SWAP2 SWAP1 PUSH2 0x55C JUMP JUMPDEST PUSH2 0xC3 JUMP JUMPDEST STOP JUMPDEST PUSH2 0x72 PUSH2 0x25C JUMP JUMPDEST PUSH1 0x40 MLOAD PUSH2 0x7F SWAP2 SWAP1 PUSH2 0x5D7 JUMP JUMPDEST PUSH1 0x40 MLOAD DUP1 SWAP2 SUB SWAP1 RETURN JUMPDEST PUSH2 0xA2 PUSH1 0x4 DUP1 CALLDATASIZE SUB DUP2 ADD SWAP1 PUSH2 0x9D SWAP2 SWAP1 PUSH2 0x5F0 JUMP JUMPDEST PUSH2 0x280 JUMP JUMPDEST PUSH1 0x40 MLOAD PUSH2 0xB0 SWAP3 SWAP2 SWAP1 PUSH2 0x68A JUMP JUMPDEST PUSH1 0x40 MLOAD DUP1 SWAP2 SUB SWAP1 RETURN JUMPDEST PUSH2 0xC1 PUSH2 0x326 JUMP JUMPDEST STOP JUMPDEST CALLER PUSH20 0xFFFFFFFFFFFFFFFFFFFFFFFFFFFFFFFFFFFFFFFF AND PUSH0 PUSH0 SWAP1 SLOAD SWAP1 PUSH2 0x100 EXP SWAP1 DIV PUSH20 0xFFFFFFFFFFFFFFFFFFFFFFFFFFFFFFFFFFFFFFFF AND PUSH20 0xFFFFFFFFFFFFFFFFFFFFFFFFFFFFFFFFFFFFFFFF AND EQ PUSH2 0x151 JUMPI PUSH1 0x40 MLOAD PUSH32 0x8C379A000000000000000000000000000000000000000000000000000000000 DUP2 MSTORE PUSH1 0x4 ADD PUSH2 0x148 SWAP1 PUSH2 0x702 JUMP JUMPDEST PUSH1 0x40 MLOAD DUP1 SWAP2 SUB SWAP1 REVERT JUMPDEST PUSH0 PUSH0 SWAP1 SLOAD SWAP1 PUSH2 0x100 EXP SWAP1 DIV PUSH20 0xFFFFFFFFFFFFFFFFFFFFFFFFFFFFFFFFFFFFFFFF AND PUSH20 0xFFFFFFFFFFFFFFFFFFFFFFFFFFFFFFFFFFFFFFFF AND CALLER PUSH20 0xFFFFFFFFFFFFFFFFFFFFFFFFFFFFFFFFFFFFFFFF AND EQ PUSH2 0x1DF JUMPI PUSH1 0x40 MLOAD PUSH32 0x8C379A000000000000000000000000000000000000000000000000000000000 DUP2 MSTORE PUSH1 0x4 ADD PUSH2 0x1D6 SWAP1 PUSH2 0x76A JUMP JUMPDEST PUSH1 0x40 MLOAD DUP1 SWAP2 SUB SWAP1 REVERT JUMPDEST PUSH0 PUSH1 0x40 MLOAD DUP1 PUSH1 0x40 ADD PUSH1 0x40 MSTORE DUP1 DUP5 DUP2 MSTORE PUSH1 0x20 ADD DUP4 DUP2 MSTORE POP SWAP1 POP DUP1 PUSH1 0x1 PUSH0 DUP7 PUSH20 0xFFFFFFFFFFFFFFFFFFFFFFFFFFFFFFFFFFFFFFFF AND PUSH20 0xFFFFFFFFFFFFFFFFFFFFFFFFFFFFFFFFFFFFFFFF AND DUP2 MSTORE PUSH1 0x20 ADD SWAP1 DUP2 MSTORE PUSH1 0x20 ADD PUSH0 KECCAK256 PUSH0 DUP3 ADD MLOAD DUP2 PUSH0 ADD SWAP1 DUP2 PUSH2 0x248 SWAP2 SWAP1 PUSH2 0x985 JUMP JUMPDEST POP PUSH1 0x20 DUP3 ADD MLOAD DUP2 PUSH1 0x1 ADD SSTORE SWAP1 POP POP POP POP POP POP JUMP JUMPDEST PUSH0 PUSH0 SWAP1 SLOAD SWAP1 PUSH2 0x100 EXP SWAP1 DIV PUSH20 0xFFFFFFFFFFFFFFFFFFFFFFFFFFFFFFFFFFFFFFFF AND DUP2 JUMP JUMPDEST PUSH1 0x1 PUSH1 0x20 MSTORE DUP1 PUSH0 MSTORE PUSH1 0x40 PUSH0 KECCAK256 PUSH0 SWAP2 POP SWAP1 POP DUP1 PUSH0 ADD DUP1 SLOAD PUSH2 0x29F SWAP1 PUSH2 0x7B5 JUMP JUMPDEST DUP1 PUSH1 0x1F ADD PUSH1 0x20 DUP1 SWAP2 DIV MUL PUSH1 0x20 ADD PUSH1 0x40 MLOAD SWAP1 DUP2 ADD PUSH1 0x40 MSTORE DUP1 SWAP3 SWAP2 SWAP1 DUP2 DUP2 MSTORE PUSH1 0x20 ADD DUP3 DUP1 SLOAD PUSH2 0x2CB SWAP1 PUSH2 0x7B5 JUMP JUMPDEST DUP1 ISZERO PUSH2 0x316 JUMPI DUP1 PUSH1 0x1F LT PUSH2 0x2ED JUMPI PUSH2 0x100 DUP1 DUP4 SLOAD DIV MUL DUP4 MSTORE SWAP2 PUSH1 0x20 ADD SWAP2 PUSH2 0x316 JUMP JUMPDEST DUP3 ADD SWAP2 SWAP1 PUSH0 MSTORE PUSH1 0x20 PUSH0 KECCAK256 SWAP1 JUMPDEST DUP2 SLOAD DUP2 MSTORE SWAP1 PUSH1 0x1 ADD SWAP1 PUSH1 0x20 ADD DUP1 DUP4 GT PUSH2 0x2F9 JUMPI DUP3 SWAP1 SUB PUSH1 0x1F AND DUP3 ADD SWAP2 JUMPDEST POP POP POP POP POP SWAP1 DUP1 PUSH1 0x1 ADD SLOAD SWAP1 POP DUP3 JUMP JUMPDEST PUSH0 PUSH1 0x1 PUSH0 CALLER PUSH20 0xFFFFFFFFFFFFFFFFFFFFFFFFFFFFFFFFFFFFFFFF AND PUSH20 0xFFFFFFFFFFFFFFFFFFFFFFFFFFFFFFFFFFFFFFFF AND DUP2 MSTORE PUSH1 0x20 ADD SWAP1 DUP2 MSTORE PUSH1 0x20 ADD PUSH0 KECCAK256 SWAP1 POP PUSH1 0xA DUP2 PUSH1 0x1 ADD SLOAD PUSH2 0x377 SWAP2 SWAP1 PUSH2 0xA81 JUMP JUMPDEST DUP2 PUSH1 0x1 ADD DUP2 SWAP1 SSTORE POP POP JUMP JUMPDEST PUSH0 PUSH1 0x40 MLOAD SWAP1 POP SWAP1 JUMP JUMPDEST PUSH0 PUSH0 REVERT JUMPDEST PUSH0 PUSH0 REVERT JUMPDEST PUSH0 PUSH20 0xFFFFFFFFFFFFFFFFFFFFFFFFFFFFFFFFFFFFFFFF DUP3 AND SWAP1 POP SWAP2 SWAP1 POP JUMP JUMPDEST PUSH0 PUSH2 0x3BC DUP3 PUSH2 0x393 JUMP JUMPDEST SWAP1 POP SWAP2 SWAP1 POP JUMP JUMPDEST PUSH2 0x3CC DUP2 PUSH2 0x3B2 JUMP JUMPDEST DUP2 EQ PUSH2 0x3D6 JUMPI PUSH0 PUSH0 REVERT JUMPDEST POP JUMP JUMPDEST PUSH0 DUP2 CALLDATALOAD SWAP1 POP PUSH2 0x3E7 DUP2 PUSH2 0x3C3 JUMP JUMPDEST SWAP3 SWAP2 POP POP JUMP JUMPDEST PUSH0 PUSH0 REVERT JUMPDEST PUSH0 PUSH0 REVERT JUMPDEST PUSH0 PUSH1 0x1F NOT PUSH1 0x1F DUP4 ADD AND SWAP1 POP SWAP2 SWAP1 POP JUMP JUMPDEST PUSH32 0x4E487B7100000000000000000000000000000000000000000000000000000000 PUSH0 MSTORE PUSH1 0x41 PUSH1 0x4 MSTORE PUSH1 0x24 PUSH0 REVERT JUMPDEST PUSH2 0x43B DUP3 PUSH2 0x3F5 JUMP JUMPDEST DUP2 ADD DUP2 DUP2 LT PUSH8 0xFFFFFFFFFFFFFFFF DUP3 GT OR ISZERO PUSH2 0x45A JUMPI PUSH2 0x459 PUSH2 0x405 JUMP JUMPDEST JUMPDEST DUP1 PUSH1 0x40 MSTORE POP POP POP JUMP JUMPDEST PUSH0 PUSH2 0x46C PUSH2 0x382 JUMP JUMPDEST SWAP1 POP PUSH2 0x478 DUP3 DUP3 PUSH2 0x432 JUMP JUMPDEST SWAP2 SWAP1 POP JUMP JUMPDEST PUSH0 PUSH8 0xFFFFFFFFFFFFFFFF DUP3 GT ISZERO PUSH2 0x497 JUMPI PUSH2 0x496 PUSH2 0x405 JUMP JUMPDEST JUMPDEST PUSH2 0x4A0 DUP3 PUSH2 0x3F5 JUMP JUMPDEST SWAP1 POP PUSH1 0x20 DUP2 ADD SWAP1 POP SWAP2 SWAP1 POP JUMP JUMPDEST DUP3 DUP2 DUP4 CALLDATACOPY PUSH0 DUP4 DUP4 ADD MSTORE POP POP POP JUMP JUMPDEST PUSH0 PUSH2 0x4CD PUSH2 0x4C8 DUP5 PUSH2 0x47D JUMP JUMPDEST PUSH2 0x463 JUMP JUMPDEST SWAP1 POP DUP3 DUP2 MSTORE PUSH1 0x20 DUP2 ADD DUP5 DUP5 DUP5 ADD GT ISZERO PUSH2 0x4E9 JUMPI PUSH2 0x4E8 PUSH2 0x3F1 JUMP JUMPDEST JUMPDEST PUSH2 0x4F4 DUP5 DUP3 DUP6 PUSH2 0x4AD JUMP JUMPDEST POP SWAP4 SWAP3 POP POP POP JUMP JUMPDEST PUSH0 DUP3 PUSH1 0x1F DUP4 ADD SLT PUSH2 0x510 JUMPI PUSH2 0x50F PUSH2 0x3ED JUMP JUMPDEST JUMPDEST DUP2 CALLDATALOAD PUSH2 0x520 DUP5 DUP3 PUSH1 0x20 DUP7 ADD PUSH2 0x4BB JUMP JUMPDEST SWAP2 POP POP SWAP3 SWAP2 POP POP JUMP JUMPDEST PUSH0 DUP2 SWAP1 POP SWAP2 SWAP1 POP JUMP JUMPDEST PUSH2 0x53B DUP2 PUSH2 0x529 JUMP JUMPDEST DUP2 EQ PUSH2 0x545 JUMPI PUSH0 PUSH0 REVERT JUMPDEST POP JUMP JUMPDEST PUSH0 DUP2 CALLDATALOAD SWAP1 POP PUSH2 0x556 DUP2 PUSH2 0x532 JUMP JUMPDEST SWAP3 SWAP2 POP POP JUMP JUMPDEST PUSH0 PUSH0 PUSH0 PUSH1 0x60 DUP5 DUP7 SUB SLT ISZERO PUSH2 0x573 JUMPI PUSH2 0x572 PUSH2 0x38B JUMP JUMPDEST JUMPDEST PUSH0 PUSH2 0x580 DUP7 DUP3 DUP8 ADD PUSH2 0x3D9 JUMP JUMPDEST SWAP4 POP POP PUSH1 0x20 DUP5 ADD CALLDATALOAD PUSH8 0xFFFFFFFFFFFFFFFF DUP2 GT ISZERO PUSH2 0x5A1 JUMPI PUSH2 0x5A0 PUSH2 0x38F JUMP JUMPDEST JUMPDEST PUSH2 0x5AD DUP7 DUP3 DUP8 ADD PUSH2 0x4FC JUMP JUMPDEST SWAP3 POP POP PUSH1 0x40 PUSH2 0x5BE DUP7 DUP3 DUP8 ADD PUSH2 0x548 JUMP JUMPDEST SWAP2 POP POP SWAP3 POP SWAP3 POP SWAP3 JUMP JUMPDEST PUSH2 0x5D1 DUP2 PUSH2 0x3B2 JUMP JUMPDEST DUP3 MSTORE POP POP JUMP JUMPDEST PUSH0 PUSH1 0x20 DUP3 ADD SWAP1 POP PUSH2 0x5EA PUSH0 DUP4 ADD DUP5 PUSH2 0x5C8 JUMP JUMPDEST SWAP3 SWAP2 POP POP JUMP JUMPDEST PUSH0 PUSH1 0x20 DUP3 DUP5 SUB SLT ISZERO PUSH2 0x605 JUMPI PUSH2 0x604 PUSH2 0x38B JUMP JUMPDEST JUMPDEST PUSH0 PUSH2 0x612 DUP5 DUP3 DUP6 ADD PUSH2 0x3D9 JUMP JUMPDEST SWAP2 POP POP SWAP3 SWAP2 POP POP JUMP JUMPDEST PUSH0 DUP2 MLOAD SWAP1 POP SWAP2 SWAP1 POP JUMP JUMPDEST PUSH0 DUP3 DUP3 MSTORE PUSH1 0x20 DUP3 ADD SWAP1 POP SWAP3 SWAP2 POP POP JUMP JUMPDEST DUP3 DUP2 DUP4 MCOPY PUSH0 DUP4 DUP4 ADD MSTORE POP POP POP JUMP JUMPDEST PUSH0 PUSH2 0x64D DUP3 PUSH2 0x61B JUMP JUMPDEST PUSH2 0x657 DUP2 DUP6 PUSH2 0x625 JUMP JUMPDEST SWAP4 POP PUSH2 0x667 DUP2 DUP6 PUSH1 0x20 DUP7 ADD PUSH2 0x635 JUMP JUMPDEST PUSH2 0x670 DUP2 PUSH2 0x3F5 JUMP JUMPDEST DUP5 ADD SWAP2 POP POP SWAP3 SWAP2 POP POP JUMP JUMPDEST PUSH2 0x684 DUP2 PUSH2 0x529 JUMP JUMPDEST DUP3 MSTORE POP POP JUMP JUMPDEST PUSH0 PUSH1 0x40 DUP3 ADD SWAP1 POP DUP2 DUP2 SUB PUSH0 DUP4 ADD MSTORE PUSH2 0x6A2 DUP2 DUP6 PUSH2 0x643 JUMP JUMPDEST SWAP1 POP PUSH2 0x6B1 PUSH1 0x20 DUP4 ADD DUP5 PUSH2 0x67B JUMP JUMPDEST SWAP4 SWAP3 POP POP POP JUMP JUMPDEST PUSH32 0x4E6F7420616C6C6F776564000000000000000000000000000000000000000000 PUSH0 DUP3 ADD MSTORE POP JUMP JUMPDEST PUSH0 PUSH2 0x6EC PUSH1 0xB DUP4 PUSH2 0x625 JUMP JUMPDEST SWAP2 POP PUSH2 0x6F7 DUP3 PUSH2 0x6B8 JUMP JUMPDEST PUSH1 0x20 DUP3 ADD SWAP1 POP SWAP2 SWAP1 POP JUMP JUMPDEST PUSH0 PUSH1 0x20 DUP3 ADD SWAP1 POP DUP2 DUP2 SUB PUSH0 DUP4 ADD MSTORE PUSH2 0x719 DUP2 PUSH2 0x6E0 JUMP JUMPDEST SWAP1 POP SWAP2 SWAP1 POP JUMP JUMPDEST PUSH32 0x506C617965722069732072657175697265640000000000000000000000000000 PUSH0 DUP3 ADD MSTORE POP JUMP JUMPDEST PUSH0 PUSH2 0x754 PUSH1 0x12 DUP4 PUSH2 0x625 JUMP JUMPDEST SWAP2 POP PUSH2 0x75F DUP3 PUSH2 0x720 JUMP JUMPDEST PUSH1 0x20 DUP3 ADD SWAP1 POP SWAP2 SWAP1 POP JUMP JUMPDEST PUSH0 PUSH1 0x20 DUP3 ADD SWAP1 POP DUP2 DUP2 SUB PUSH0 DUP4 ADD MSTORE PUSH2 0x781 DUP2 PUSH2 0x748 JUMP JUMPDEST SWAP1 POP SWAP2 SWAP1 POP JUMP JUMPDEST PUSH32 0x4E487B7100000000000000000000000000000000000000000000000000000000 PUSH0 MSTORE PUSH1 0x22 PUSH1 0x4 MSTORE PUSH1 0x24 PUSH0 REVERT JUMPDEST PUSH0 PUSH1 0x2 DUP3 DIV SWAP1 POP PUSH1 0x1 DUP3 AND DUP1 PUSH2 0x7CC JUMPI PUSH1 0x7F DUP3 AND SWAP2 POP JUMPDEST PUSH1 0x20 DUP3 LT DUP2 SUB PUSH2 0x7DF JUMPI PUSH2 0x7DE PUSH2 0x788 JUMP JUMPDEST JUMPDEST POP SWAP2 SWAP1 POP JUMP JUMPDEST PUSH0 DUP2 SWAP1 POP DUP2 PUSH0 MSTORE PUSH1 0x20 PUSH0 KECCAK256 SWAP1 POP SWAP2 SWAP1 POP JUMP JUMPDEST PUSH0 PUSH1 0x20 PUSH1 0x1F DUP4 ADD DIV SWAP1 POP SWAP2 SWAP1 POP JUMP JUMPDEST PUSH0 DUP3 DUP3 SHL SWAP1 POP SWAP3 SWAP2 POP POP JUMP JUMPDEST PUSH0 PUSH1 0x8 DUP4 MUL PUSH2 0x841 PUSH32 0xFFFFFFFFFFFFFFFFFFFFFFFFFFFFFFFFFFFFFFFFFFFFFFFFFFFFFFFFFFFFFFFF DUP3 PUSH2 0x806 JUMP JUMPDEST PUSH2 0x84B DUP7 DUP4 PUSH2 0x806 JUMP JUMPDEST SWAP6 POP DUP1 NOT DUP5 AND SWAP4 POP DUP1 DUP7 AND DUP5 OR SWAP3 POP POP POP SWAP4 SWAP3 POP POP POP JUMP JUMPDEST PUSH0 DUP2 SWAP1 POP SWAP2 SWAP1 POP JUMP JUMPDEST PUSH0 PUSH2 0x886 PUSH2 0x881 PUSH2 0x87C DUP5 PUSH2 0x529 JUMP JUMPDEST PUSH2 0x863 JUMP JUMPDEST PUSH2 0x529 JUMP JUMPDEST SWAP1 POP SWAP2 SWAP1 POP JUMP JUMPDEST PUSH0 DUP2 SWAP1 POP SWAP2 SWAP1 POP JUMP JUMPDEST PUSH2 0x89F DUP4 PUSH2 0x86C JUMP JUMPDEST PUSH2 0x8B3 PUSH2 0x8AB DUP3 PUSH2 0x88D JUMP JUMPDEST DUP5 DUP5 SLOAD PUSH2 0x812 JUMP JUMPDEST DUP3 SSTORE POP POP POP POP JUMP JUMPDEST PUSH0 PUSH0 SWAP1 POP SWAP1 JUMP JUMPDEST PUSH2 0x8CA PUSH2 0x8BB JUMP JUMPDEST PUSH2 0x8D5 DUP2 DUP5 DUP5 PUSH2 0x896 JUMP JUMPDEST POP POP POP JUMP JUMPDEST JUMPDEST DUP2 DUP2 LT ISZERO PUSH2 0x8F8 JUMPI PUSH2 0x8ED PUSH0 DUP3 PUSH2 0x8C2 JUMP JUMPDEST PUSH1 0x1 DUP2 ADD SWAP1 POP PUSH2 0x8DB JUMP JUMPDEST POP POP JUMP JUMPDEST PUSH1 0x1F DUP3 GT ISZERO PUSH2 0x93D JUMPI PUSH2 0x90E DUP2 PUSH2 0x7E5 JUMP JUMPDEST PUSH2 0x917 DUP5 PUSH2 0x7F7 JUMP JUMPDEST DUP2 ADD PUSH1 0x20 DUP6 LT ISZERO PUSH2 0x926 JUMPI DUP2 SWAP1 POP JUMPDEST PUSH2 0x93A PUSH2 0x932 DUP6 PUSH2 0x7F7 JUMP JUMPDEST DUP4 ADD DUP3 PUSH2 0x8DA JUMP JUMPDEST POP POP JUMPDEST POP POP POP JUMP JUMPDEST PUSH0 DUP3 DUP3 SHR SWAP1 POP SWAP3 SWAP2 POP POP JUMP JUMPDEST PUSH0 PUSH2 0x95D PUSH0 NOT DUP5 PUSH1 0x8 MUL PUSH2 0x942 JUMP JUMPDEST NOT DUP1 DUP4 AND SWAP2 POP POP SWAP3 SWAP2 POP POP JUMP JUMPDEST PUSH0 PUSH2 0x975 DUP4 DUP4 PUSH2 0x94E JUMP JUMPDEST SWAP2 POP DUP3 PUSH1 0x2 MUL DUP3 OR SWAP1 POP SWAP3 SWAP2 POP POP JUMP JUMPDEST PUSH2 0x98E DUP3 PUSH2 0x61B JUMP JUMPDEST PUSH8 0xFFFFFFFFFFFFFFFF DUP2 GT ISZERO PUSH2 0x9A7 JUMPI PUSH2 0x9A6 PUSH2 0x405 JUMP JUMPDEST JUMPDEST PUSH2 0x9B1 DUP3 SLOAD PUSH2 0x7B5 JUMP JUMPDEST PUSH2 0x9BC DUP3 DUP3 DUP6 PUSH2 0x8FC JUMP JUMPDEST PUSH0 PUSH1 0x20 SWAP1 POP PUSH1 0x1F DUP4 GT PUSH1 0x1 DUP2 EQ PUSH2 0x9ED JUMPI PUSH0 DUP5 ISZERO PUSH2 0x9DB JUMPI DUP3 DUP8 ADD MLOAD SWAP1 POP JUMPDEST PUSH2 0x9E5 DUP6 DUP3 PUSH2 0x96A JUMP JUMPDEST DUP7 SSTORE POP PUSH2 0xA4C JUMP JUMPDEST PUSH1 0x1F NOT DUP5 AND PUSH2 0x9FB DUP7 PUSH2 0x7E5 JUMP JUMPDEST PUSH0 JUMPDEST DUP3 DUP2 LT ISZERO PUSH2 0xA22 JUMPI DUP5 DUP10 ADD MLOAD DUP3 SSTORE PUSH1 0x1 DUP3 ADD SWAP2 POP PUSH1 0x20 DUP6 ADD SWAP5 POP PUSH1 0x20 DUP2 ADD SWAP1 POP PUSH2 0x9FD JUMP JUMPDEST DUP7 DUP4 LT ISZERO PUSH2 0xA3F JUMPI DUP5 DUP10 ADD MLOAD PUSH2 0xA3B PUSH1 0x1F DUP10 AND DUP3 PUSH2 0x94E JUMP JUMPDEST DUP4 SSTORE POP JUMPDEST PUSH1 0x1 PUSH1 0x2 DUP9 MUL ADD DUP9 SSTORE POP POP POP JUMPDEST POP POP POP POP POP POP JUMP JUMPDEST PUSH32 0x4E487B7100000000000000000000000000000000000000000000000000000000 PUSH0 MSTORE PUSH1 0x11 PUSH1 0x4 MSTORE PUSH1 0x24 PUSH0 REVERT JUMPDEST PUSH0 PUSH2 0xA8B DUP3 PUSH2 0x529 JUMP JUMPDEST SWAP2 POP PUSH2 0xA96 DUP4 PUSH2 0x529 JUMP JUMPDEST SWAP3 POP DUP3 DUP3 ADD SWAP1 POP DUP1 DUP3 GT ISZERO PUSH2 0xAAE JUMPI PUSH2 0xAAD PUSH2 0xA54 JUMP JUMPDEST JUMPDEST SWAP3 SWAP2 POP POP JUMP INVALID LOG2 PUSH5 0x6970667358 0x22 SLT KECCAK256 0xC5 PC SWAP14 SUB 0xC1 0xED ORIGIN 0x23 0xCC SWAP7 0x1F 0xC0 CODECOPY 0xAD 0xB7 CALLDATASIZE PUSH14 0x2CC9465647A3439D594FFA2A33E3 0xC4 PUSH5 0x736F6C6343 STOP ADDMOD 0x1E STOP CALLER "
				},
				"gasEstimates": {
					"creation": {
						"codeDepositCost": "558800",
						"executionCost": "24856",
						"totalCost": "583656"
					},
					"external": {
						"boostItem()": "infinite",
						"createItem(address,string,uint256)": "infinite",
						"inventory(address)": "infinite",
						"owner()": "2507"
					}
				},
				"methodIdentifiers": {
					"boostItem()": "c1b39af6",
					"createItem(address,string,uint256)": "4307a4bf",
					"inventory(address)": "b5fd282a",
					"owner()": "8da5cb5b"
				}
			},
			"storageLayout": {
				"storage": [
					{
						"astId": 8,
						"contract": "forge.sol:Forge",
						"label": "owner",
						"offset": 0,
						"slot": "0",
						"type": "t_address"
					},
					{
						"astId": 22,
						"contract": "forge.sol:Forge",
						"label": "inventory",
						"offset": 0,
						"slot": "1",
						"type": "t_mapping(t_address,t_struct(Item)6_storage)"
					}
				],
				"types": {
					"t_address": {
						"encoding": "inplace",
						"label": "address",
						"numberOfBytes": "20"
					},
					"t_mapping(t_address,t_struct(Item)6_storage)": {
						"encoding": "mapping",
						"key": "t_address",
						"label": "mapping(address => struct Forge.Item)",
						"numberOfBytes": "32",
						"value": "t_struct(Item)6_storage"
					},
					"t_string_storage": {
						"encoding": "bytes",
						"label": "string",
						"numberOfBytes": "32"
					},
					"t_struct(Item)6_storage": {
						"encoding": "inplace",
						"label": "struct Forge.Item",
						"members": [
							{
								"astId": 3,
								"contract": "forge.sol:Forge",
								"label": "name",
								"offset": 0,
								"slot": "0",
								"type": "t_string_storage"
							},
							{
								"astId": 5,
								"contract": "forge.sol:Forge",
								"label": "power",
								"offset": 0,
								"slot": "1",
								"type": "t_uint256"
							}
						],
						"numberOfBytes": "64"
					},
					"t_uint256": {
						"encoding": "inplace",
						"label": "uint256",
						"numberOfBytes": "32"
					}
				}
			},
			"userdoc": {
				"kind": "user",
				"methods": {},
				"version": 1
			}
		}
	}
}